{
  "contractName": "LandRegistry",
  "abi": [
    {
      "anonymous": false,
      "inputs": [
        {
          "indexed": false,
          "internalType": "uint256",
          "name": "_id",
          "type": "uint256"
        }
      ],
      "name": "sendPropertyId",
      "type": "event"
    },
    {
      "inputs": [],
      "name": "propertyCount",
      "outputs": [
        {
          "internalType": "uint256",
          "name": "",
          "type": "uint256"
        }
      ],
      "stateMutability": "view",
      "type": "function",
      "constant": true
    },
    {
      "inputs": [
        {
          "internalType": "uint256",
          "name": "",
          "type": "uint256"
        }
      ],
      "name": "registerdLands",
      "outputs": [
        {
          "internalType": "uint256",
          "name": "",
          "type": "uint256"
        }
      ],
      "stateMutability": "view",
      "type": "function",
      "constant": true
    },
    {
      "inputs": [],
      "name": "getRegisteredLandCount",
      "outputs": [
        {
          "internalType": "uint256",
          "name": "",
          "type": "uint256"
        }
      ],
      "stateMutability": "view",
      "type": "function",
      "constant": true
    },
    {
      "inputs": [
        {
          "components": [
            {
              "internalType": "string",
              "name": "propertyHouseNumber",
              "type": "string"
            },
            {
              "internalType": "string",
              "name": "propertyStreetName",
              "type": "string"
            },
            {
              "internalType": "string",
              "name": "propertyType",
              "type": "string"
            },
            {
              "internalType": "uint256",
              "name": "propertyLength",
              "type": "uint256"
            },
            {
              "internalType": "uint256",
              "name": "propertyWidth",
              "type": "uint256"
            },
            {
              "internalType": "uint256",
              "name": "propertyPincode",
              "type": "uint256"
            },
            {
              "internalType": "string",
              "name": "propertyState",
              "type": "string"
            },
            {
              "internalType": "string",
              "name": "propertyVillage",
              "type": "string"
            },
            {
              "internalType": "string",
              "name": "propertyDistrict",
              "type": "string"
            },
            {
              "internalType": "string",
              "name": "propertyTaluka",
              "type": "string"
            },
            {
              "internalType": "string",
              "name": "ownerName",
              "type": "string"
            },
            {
              "internalType": "string",
              "name": "aadharCardNumber",
              "type": "string"
            },
            {
              "internalType": "string",
              "name": "panCardNumber",
              "type": "string"
            },
            {
              "internalType": "bool",
              "name": "transfered",
              "type": "bool"
            },
            {
              "internalType": "uint256",
              "name": "transferedTo",
              "type": "uint256"
            },
            {
              "internalType": "uint256[]",
              "name": "transferedFrom",
              "type": "uint256[]"
            },
            {
              "internalType": "uint256[]",
              "name": "propertySplitLandId",
              "type": "uint256[]"
            },
            {
              "internalType": "uint256",
              "name": "surveyNumber",
              "type": "uint256"
            },
            {
              "internalType": "uint256",
              "name": "subSurveyNumber",
              "type": "uint256"
            },
            {
              "internalType": "string",
              "name": "createdOn",
              "type": "string"
            },
            {
              "components": [
                {
                  "internalType": "string",
                  "name": "docId",
                  "type": "string"
                },
                {
                  "internalType": "string",
                  "name": "name",
                  "type": "string"
                },
                {
                  "internalType": "string",
                  "name": "link",
                  "type": "string"
                },
                {
                  "internalType": "string",
                  "name": "hash",
                  "type": "string"
                },
                {
                  "internalType": "bool",
                  "name": "verified",
                  "type": "bool"
                }
              ],
              "internalType": "struct LandRegistry.document[]",
              "name": "documents",
              "type": "tuple[]"
            }
          ],
          "internalType": "struct LandRegistry.inputvariables",
          "name": "variable",
          "type": "tuple"
        }
      ],
      "name": "registerNewProperty",
      "outputs": [
        {
          "internalType": "uint256",
          "name": "",
          "type": "uint256"
        }
      ],
      "stateMutability": "nonpayable",
      "type": "function"
    },
    {
      "inputs": [
        {
          "internalType": "uint256[]",
          "name": "_propertyId",
          "type": "uint256[]"
        },
        {
          "internalType": "string",
          "name": "_newOwnerName",
          "type": "string"
        },
        {
          "internalType": "string",
          "name": "_newOwnerAadhaarCardNumber",
          "type": "string"
        },
        {
          "internalType": "string",
          "name": "_newOwnerPanCardNumber",
          "type": "string"
        },
        {
          "components": [
            {
              "internalType": "string",
              "name": "docId",
              "type": "string"
            },
            {
              "internalType": "string",
              "name": "name",
              "type": "string"
            },
            {
              "internalType": "string",
              "name": "link",
              "type": "string"
            },
            {
              "internalType": "string",
              "name": "hash",
              "type": "string"
            },
            {
              "internalType": "bool",
              "name": "verified",
              "type": "bool"
            }
          ],
          "internalType": "struct LandRegistry.document[]",
          "name": "documents",
          "type": "tuple[]"
        }
      ],
      "name": "transferOwnership",
      "outputs": [],
      "stateMutability": "nonpayable",
      "type": "function"
    },
    {
      "inputs": [
        {
          "components": [
            {
              "internalType": "string",
              "name": "propertyHouseNumber",
              "type": "string"
            },
            {
              "internalType": "string",
              "name": "propertyStreetName",
              "type": "string"
            },
            {
              "internalType": "string",
              "name": "propertyType",
              "type": "string"
            },
            {
              "internalType": "uint256",
              "name": "propertyLength",
              "type": "uint256"
            },
            {
              "internalType": "uint256",
              "name": "propertyWidth",
              "type": "uint256"
            },
            {
              "internalType": "uint256",
              "name": "propertyPincode",
              "type": "uint256"
            },
            {
              "internalType": "string",
              "name": "propertyState",
              "type": "string"
            },
            {
              "internalType": "string",
              "name": "propertyVillage",
              "type": "string"
            },
            {
              "internalType": "string",
              "name": "propertyDistrict",
              "type": "string"
            },
            {
              "internalType": "string",
              "name": "propertyTaluka",
              "type": "string"
            },
            {
              "internalType": "string",
              "name": "ownerName",
              "type": "string"
            },
            {
              "internalType": "string",
              "name": "aadharCardNumber",
              "type": "string"
            },
            {
              "internalType": "string",
              "name": "panCardNumber",
              "type": "string"
            },
            {
              "internalType": "bool",
              "name": "transfered",
              "type": "bool"
            },
            {
              "internalType": "uint256",
              "name": "transferedTo",
              "type": "uint256"
            },
            {
              "internalType": "uint256[]",
              "name": "transferedFrom",
              "type": "uint256[]"
            },
            {
              "internalType": "uint256[]",
              "name": "propertySplitLandId",
              "type": "uint256[]"
            },
            {
              "internalType": "uint256",
              "name": "surveyNumber",
              "type": "uint256"
            },
            {
              "internalType": "uint256",
              "name": "subSurveyNumber",
              "type": "uint256"
            },
            {
              "internalType": "string",
              "name": "createdOn",
              "type": "string"
            },
            {
              "components": [
                {
                  "internalType": "string",
                  "name": "docId",
                  "type": "string"
                },
                {
                  "internalType": "string",
                  "name": "name",
                  "type": "string"
                },
                {
                  "internalType": "string",
                  "name": "link",
                  "type": "string"
                },
                {
                  "internalType": "string",
                  "name": "hash",
                  "type": "string"
                },
                {
                  "internalType": "bool",
                  "name": "verified",
                  "type": "bool"
                }
              ],
              "internalType": "struct LandRegistry.document[]",
              "name": "documents",
              "type": "tuple[]"
            }
          ],
          "internalType": "struct LandRegistry.inputvariables",
          "name": "variable",
          "type": "tuple"
        }
      ],
      "name": "mergeProperties",
      "outputs": [],
      "stateMutability": "nonpayable",
      "type": "function"
    },
    {
      "inputs": [
        {
          "components": [
            {
              "internalType": "uint256",
              "name": "_propertyId",
              "type": "uint256"
            },
            {
              "internalType": "string",
              "name": "_createdOn",
              "type": "string"
            },
            {
              "internalType": "string[]",
              "name": "_ownerName",
              "type": "string[]"
            },
            {
              "internalType": "uint256[]",
              "name": "_propertyLength",
              "type": "uint256[]"
            },
            {
              "internalType": "uint256[]",
              "name": "_propertyWidth",
              "type": "uint256[]"
            },
            {
              "internalType": "string[]",
              "name": "_ownerAadhaarCardNumber",
              "type": "string[]"
            },
            {
              "internalType": "string[]",
              "name": "_ownerPanCardNumber",
              "type": "string[]"
            },
            {
              "internalType": "uint256[]",
              "name": "_surveyNumber",
              "type": "uint256[]"
            },
            {
              "internalType": "uint256[]",
              "name": "_subSurveyNumber",
              "type": "uint256[]"
            },
            {
              "internalType": "string[]",
              "name": "_documentsId",
              "type": "string[]"
            },
            {
              "internalType": "string[]",
              "name": "_documentsName",
              "type": "string[]"
            },
            {
              "internalType": "string[]",
              "name": "_documentsHash",
              "type": "string[]"
            },
            {
              "internalType": "string[]",
              "name": "_documentsLink",
              "type": "string[]"
            }
          ],
          "internalType": "struct LandRegistry.splitPropertyInputs",
          "name": "inputParameters",
          "type": "tuple"
        }
      ],
      "name": "splitProperty",
      "outputs": [],
      "stateMutability": "nonpayable",
      "type": "function"
    },
    {
      "inputs": [
        {
          "internalType": "uint256",
          "name": "_propertyId",
          "type": "uint256"
        }
      ],
      "name": "getProperty",
      "outputs": [
        {
          "components": [
            {
              "internalType": "string",
              "name": "propertyHouseNumber",
              "type": "string"
            },
            {
              "internalType": "string",
              "name": "propertyStreetName",
              "type": "string"
            },
            {
              "internalType": "string",
              "name": "propertyType",
              "type": "string"
            },
            {
              "internalType": "uint256",
              "name": "propertyLength",
              "type": "uint256"
            },
            {
              "internalType": "uint256",
              "name": "propertyWidth",
              "type": "uint256"
            },
            {
              "internalType": "uint256",
              "name": "propertyPincode",
              "type": "uint256"
            },
            {
              "internalType": "string",
              "name": "propertyState",
              "type": "string"
            },
            {
              "internalType": "string",
              "name": "propertyVillage",
              "type": "string"
            },
            {
              "internalType": "string",
              "name": "propertyDistrict",
              "type": "string"
            },
            {
              "internalType": "string",
              "name": "propertyTaluka",
              "type": "string"
            },
            {
              "internalType": "string",
              "name": "ownerName",
              "type": "string"
            },
            {
              "internalType": "string",
              "name": "aadharCardNumber",
              "type": "string"
            },
            {
              "internalType": "string",
              "name": "panCardNumber",
              "type": "string"
            },
            {
              "internalType": "bool",
              "name": "transfered",
              "type": "bool"
            },
            {
              "internalType": "uint256",
              "name": "transferedTo",
              "type": "uint256"
            },
            {
              "internalType": "uint256[]",
              "name": "transferedFrom",
              "type": "uint256[]"
            },
            {
              "internalType": "uint256[]",
              "name": "propertySplitLandId",
              "type": "uint256[]"
            },
            {
              "internalType": "uint256",
              "name": "surveyNumber",
              "type": "uint256"
            },
            {
              "internalType": "uint256",
              "name": "subSurveyNumber",
              "type": "uint256"
            },
            {
              "internalType": "string",
              "name": "createdOn",
              "type": "string"
            },
            {
              "components": [
                {
                  "internalType": "string",
                  "name": "docId",
                  "type": "string"
                },
                {
                  "internalType": "string",
                  "name": "name",
                  "type": "string"
                },
                {
                  "internalType": "string",
                  "name": "link",
                  "type": "string"
                },
                {
                  "internalType": "string",
                  "name": "hash",
                  "type": "string"
                },
                {
                  "internalType": "bool",
                  "name": "verified",
                  "type": "bool"
                }
              ],
              "internalType": "struct LandRegistry.document[]",
              "name": "documents",
              "type": "tuple[]"
            }
          ],
          "internalType": "struct LandRegistry.outputvariables",
          "name": "",
          "type": "tuple"
        }
      ],
      "stateMutability": "view",
      "type": "function",
      "constant": true
    }
  ],
  "bytecode": "0x608060405234801561001057600080fd5b506147c9806100206000396000f3fe608060405234801561001057600080fd5b50600436106100885760003560e01c8063a51f0b091161005b578063a51f0b0914610127578063b7e8cc7414610157578063c361a33514610173578063e5eb800a1461019157610088565b806332665ffb1461008d5780634b4124c7146100bd5780634ef1e124146100d9578063529881e114610109575b600080fd5b6100a760048036038101906100a29190612fc5565b6101ad565b6040516100b491906134c4565b60405180910390f35b6100d760048036038101906100d29190613a56565b611cd3565b005b6100f360048036038101906100ee9190612fc5565b612209565b6040516101009190613aae565b60405180910390f35b61011161222d565b60405161011e9190613aae565b60405180910390f35b610141600480360381019061013c9190614042565b612239565b60405161014e9190613aae565b60405180910390f35b610171600480360381019061016c9190614042565b61267e565b005b61017b6128a2565b6040516101889190613aae565b60405180910390f35b6101ab60048036038101906101a6919061408b565b6128a8565b005b6101b5612e6f565b6000600160008481526020019081526020016000209050606081601601826015016000815481106101e9576101e8614192565b5b9060005260206000200160405161020091906142c4565b90815260200160405180910390206040518060a0016040529081600082018054610229906141f0565b80601f0160208091040260200160405190810160405280929190818152602001828054610255906141f0565b80156102a25780601f10610277576101008083540402835291602001916102a2565b820191906000526020600020905b81548152906001019060200180831161028557829003601f168201915b505050505081526020016001820180546102bb906141f0565b80601f01602080910402602001604051908101604052809291908181526020018280546102e7906141f0565b80156103345780601f1061030957610100808354040283529160200191610334565b820191906000526020600020905b81548152906001019060200180831161031757829003601f168201915b5050505050815260200160028201805461034d906141f0565b80601f0160208091040260200160405190810160405280929190818152602001828054610379906141f0565b80156103c65780601f1061039b576101008083540402835291602001916103c6565b820191906000526020600020905b8154815290600101906020018083116103a957829003601f168201915b505050505081526020016003820180546103df906141f0565b80601f016020809104026020016040519081016040528092919081815260200182805461040b906141f0565b80156104585780601f1061042d57610100808354040283529160200191610458565b820191906000526020600020905b81548152906001019060200180831161043b57829003601f168201915b505050505081526020016004820160009054906101000a900460ff161515151581525050816000815181106104905761048f614192565b5b602002602001018190525081601601826015016001815481106104b6576104b5614192565b5b906000526020600020016040516104cd91906142c4565b90815260200160405180910390206040518060a00160405290816000820180546104f6906141f0565b80601f0160208091040260200160405190810160405280929190818152602001828054610522906141f0565b801561056f5780601f106105445761010080835404028352916020019161056f565b820191906000526020600020905b81548152906001019060200180831161055257829003601f168201915b50505050508152602001600182018054610588906141f0565b80601f01602080910402602001604051908101604052809291908181526020018280546105b4906141f0565b80156106015780601f106105d657610100808354040283529160200191610601565b820191906000526020600020905b8154815290600101906020018083116105e457829003601f168201915b5050505050815260200160028201805461061a906141f0565b80601f0160208091040260200160405190810160405280929190818152602001828054610646906141f0565b80156106935780601f1061066857610100808354040283529160200191610693565b820191906000526020600020905b81548152906001019060200180831161067657829003601f168201915b505050505081526020016003820180546106ac906141f0565b80601f01602080910402602001604051908101604052809291908181526020018280546106d8906141f0565b80156107255780601f106106fa57610100808354040283529160200191610725565b820191906000526020600020905b81548152906001019060200180831161070857829003601f168201915b505050505081526020016004820160009054906101000a900460ff1615151515815250508160018151811061075d5761075c614192565b5b6020026020010181905250816016018260150160028154811061078357610782614192565b5b9060005260206000200160405161079a91906142c4565b90815260200160405180910390206040518060a00160405290816000820180546107c3906141f0565b80601f01602080910402602001604051908101604052809291908181526020018280546107ef906141f0565b801561083c5780601f106108115761010080835404028352916020019161083c565b820191906000526020600020905b81548152906001019060200180831161081f57829003601f168201915b50505050508152602001600182018054610855906141f0565b80601f0160208091040260200160405190810160405280929190818152602001828054610881906141f0565b80156108ce5780601f106108a3576101008083540402835291602001916108ce565b820191906000526020600020905b8154815290600101906020018083116108b157829003601f168201915b505050505081526020016002820180546108e7906141f0565b80601f0160208091040260200160405190810160405280929190818152602001828054610913906141f0565b80156109605780601f1061093557610100808354040283529160200191610960565b820191906000526020600020905b81548152906001019060200180831161094357829003601f168201915b50505050508152602001600382018054610979906141f0565b80601f01602080910402602001604051908101604052809291908181526020018280546109a5906141f0565b80156109f25780601f106109c7576101008083540402835291602001916109f2565b820191906000526020600020905b8154815290600101906020018083116109d557829003601f168201915b505050505081526020016004820160009054906101000a900460ff16151515158152505081600281518110610a2a57610a29614192565b5b60200260200101819052508160160182601501600381548110610a5057610a4f614192565b5b90600052602060002001604051610a6791906142c4565b90815260200160405180910390206040518060a0016040529081600082018054610a90906141f0565b80601f0160208091040260200160405190810160405280929190818152602001828054610abc906141f0565b8015610b095780601f10610ade57610100808354040283529160200191610b09565b820191906000526020600020905b815481529060010190602001808311610aec57829003601f168201915b50505050508152602001600182018054610b22906141f0565b80601f0160208091040260200160405190810160405280929190818152602001828054610b4e906141f0565b8015610b9b5780601f10610b7057610100808354040283529160200191610b9b565b820191906000526020600020905b815481529060010190602001808311610b7e57829003601f168201915b50505050508152602001600282018054610bb4906141f0565b80601f0160208091040260200160405190810160405280929190818152602001828054610be0906141f0565b8015610c2d5780601f10610c0257610100808354040283529160200191610c2d565b820191906000526020600020905b815481529060010190602001808311610c1057829003601f168201915b50505050508152602001600382018054610c46906141f0565b80601f0160208091040260200160405190810160405280929190818152602001828054610c72906141f0565b8015610cbf5780601f10610c9457610100808354040283529160200191610cbf565b820191906000526020600020905b815481529060010190602001808311610ca257829003601f168201915b505050505081526020016004820160009054906101000a900460ff16151515158152505081600381518110610cf757610cf6614192565b5b60200260200101819052508160160182601501600481548110610d1d57610d1c614192565b5b90600052602060002001604051610d3491906142c4565b90815260200160405180910390206040518060a0016040529081600082018054610d5d906141f0565b80601f0160208091040260200160405190810160405280929190818152602001828054610d89906141f0565b8015610dd65780601f10610dab57610100808354040283529160200191610dd6565b820191906000526020600020905b815481529060010190602001808311610db957829003601f168201915b50505050508152602001600182018054610def906141f0565b80601f0160208091040260200160405190810160405280929190818152602001828054610e1b906141f0565b8015610e685780601f10610e3d57610100808354040283529160200191610e68565b820191906000526020600020905b815481529060010190602001808311610e4b57829003601f168201915b50505050508152602001600282018054610e81906141f0565b80601f0160208091040260200160405190810160405280929190818152602001828054610ead906141f0565b8015610efa5780601f10610ecf57610100808354040283529160200191610efa565b820191906000526020600020905b815481529060010190602001808311610edd57829003601f168201915b50505050508152602001600382018054610f13906141f0565b80601f0160208091040260200160405190810160405280929190818152602001828054610f3f906141f0565b8015610f8c5780601f10610f6157610100808354040283529160200191610f8c565b820191906000526020600020905b815481529060010190602001808311610f6f57829003601f168201915b505050505081526020016004820160009054906101000a900460ff16151515158152505081600481518110610fc457610fc3614192565b5b60200260200101819052508160160182601501600581548110610fea57610fe9614192565b5b9060005260206000200160405161100191906142c4565b90815260200160405180910390206040518060a001604052908160008201805461102a906141f0565b80601f0160208091040260200160405190810160405280929190818152602001828054611056906141f0565b80156110a35780601f10611078576101008083540402835291602001916110a3565b820191906000526020600020905b81548152906001019060200180831161108657829003601f168201915b505050505081526020016001820180546110bc906141f0565b80601f01602080910402602001604051908101604052809291908181526020018280546110e8906141f0565b80156111355780601f1061110a57610100808354040283529160200191611135565b820191906000526020600020905b81548152906001019060200180831161111857829003601f168201915b5050505050815260200160028201805461114e906141f0565b80601f016020809104026020016040519081016040528092919081815260200182805461117a906141f0565b80156111c75780601f1061119c576101008083540402835291602001916111c7565b820191906000526020600020905b8154815290600101906020018083116111aa57829003601f168201915b505050505081526020016003820180546111e0906141f0565b80601f016020809104026020016040519081016040528092919081815260200182805461120c906141f0565b80156112595780601f1061122e57610100808354040283529160200191611259565b820191906000526020600020905b81548152906001019060200180831161123c57829003601f168201915b505050505081526020016004820160009054906101000a900460ff1615151515815250508160058151811061129157611290614192565b5b602002602001018190525081601601826015016006815481106112b7576112b6614192565b5b906000526020600020016040516112ce91906142c4565b90815260200160405180910390206040518060a00160405290816000820180546112f7906141f0565b80601f0160208091040260200160405190810160405280929190818152602001828054611323906141f0565b80156113705780601f1061134557610100808354040283529160200191611370565b820191906000526020600020905b81548152906001019060200180831161135357829003601f168201915b50505050508152602001600182018054611389906141f0565b80601f01602080910402602001604051908101604052809291908181526020018280546113b5906141f0565b80156114025780601f106113d757610100808354040283529160200191611402565b820191906000526020600020905b8154815290600101906020018083116113e557829003601f168201915b5050505050815260200160028201805461141b906141f0565b80601f0160208091040260200160405190810160405280929190818152602001828054611447906141f0565b80156114945780601f1061146957610100808354040283529160200191611494565b820191906000526020600020905b81548152906001019060200180831161147757829003601f168201915b505050505081526020016003820180546114ad906141f0565b80601f01602080910402602001604051908101604052809291908181526020018280546114d9906141f0565b80156115265780601f106114fb57610100808354040283529160200191611526565b820191906000526020600020905b81548152906001019060200180831161150957829003601f168201915b505050505081526020016004820160009054906101000a900460ff1615151515815250508160068151811061155e5761155d614192565b5b60200260200101819052506000604051806102a00160405280846001018054611586906141f0565b80601f01602080910402602001604051908101604052809291908181526020018280546115b2906141f0565b80156115ff5780601f106115d4576101008083540402835291602001916115ff565b820191906000526020600020905b8154815290600101906020018083116115e257829003601f168201915b50505050508152602001846002018054611618906141f0565b80601f0160208091040260200160405190810160405280929190818152602001828054611644906141f0565b80156116915780601f1061166657610100808354040283529160200191611691565b820191906000526020600020905b81548152906001019060200180831161167457829003601f168201915b505050505081526020018460030180546116aa906141f0565b80601f01602080910402602001604051908101604052809291908181526020018280546116d6906141f0565b80156117235780601f106116f857610100808354040283529160200191611723565b820191906000526020600020905b81548152906001019060200180831161170657829003601f168201915b5050505050815260200184600401548152602001846005015481526020018460060154815260200184600701805461175a906141f0565b80601f0160208091040260200160405190810160405280929190818152602001828054611786906141f0565b80156117d35780601f106117a8576101008083540402835291602001916117d3565b820191906000526020600020905b8154815290600101906020018083116117b657829003601f168201915b505050505081526020018460080180546117ec906141f0565b80601f0160208091040260200160405190810160405280929190818152602001828054611818906141f0565b80156118655780601f1061183a57610100808354040283529160200191611865565b820191906000526020600020905b81548152906001019060200180831161184857829003601f168201915b5050505050815260200184600901805461187e906141f0565b80601f01602080910402602001604051908101604052809291908181526020018280546118aa906141f0565b80156118f75780601f106118cc576101008083540402835291602001916118f7565b820191906000526020600020905b8154815290600101906020018083116118da57829003601f168201915b5050505050815260200184600a018054611910906141f0565b80601f016020809104026020016040519081016040528092919081815260200182805461193c906141f0565b80156119895780601f1061195e57610100808354040283529160200191611989565b820191906000526020600020905b81548152906001019060200180831161196c57829003601f168201915b5050505050815260200184600b0180546119a2906141f0565b80601f01602080910402602001604051908101604052809291908181526020018280546119ce906141f0565b8015611a1b5780601f106119f057610100808354040283529160200191611a1b565b820191906000526020600020905b8154815290600101906020018083116119fe57829003601f168201915b5050505050815260200184600c018054611a34906141f0565b80601f0160208091040260200160405190810160405280929190818152602001828054611a60906141f0565b8015611aad5780601f10611a8257610100808354040283529160200191611aad565b820191906000526020600020905b815481529060010190602001808311611a9057829003601f168201915b5050505050815260200184600d018054611ac6906141f0565b80601f0160208091040260200160405190810160405280929190818152602001828054611af2906141f0565b8015611b3f5780601f10611b1457610100808354040283529160200191611b3f565b820191906000526020600020905b815481529060010190602001808311611b2257829003601f168201915b5050505050815260200184600e0160009054906101000a900460ff161515815260200184600f0154815260200184601001805480602002602001604051908101604052809291908181526020018280548015611bba57602002820191906000526020600020905b815481526020019060010190808311611ba6575b5050505050815260200184601101805480602002602001604051908101604052809291908181526020018280548015611c1257602002820191906000526020600020905b815481526020019060010190808311611bfe575b505050505081526020018460120154815260200184601301548152602001846014018054611c3f906141f0565b80601f0160208091040260200160405190810160405280929190818152602001828054611c6b906141f0565b8015611cb85780601f10611c8d57610100808354040283529160200191611cb8565b820191906000526020600020905b815481529060010190602001808311611c9b57829003601f168201915b50505050508152602001838152509050809350505050919050565b600060016000836000015181526020019081526020016000209050600181600e0160006101000a81548160ff02191690831515021790555060005b82606001515181101561220457600060016000600260008154611d309061430a565b9190508190558152602001908152602001600020905082600101816001019081611d5a9190614514565b5082600201816002019081611d6f9190614514565b5082600301816003019081611d849190614514565b5082600401548160040181905550826005015481600501819055508260060154816006018190555082600701816007019081611dc09190614514565b5082600801816008019081611dd59190614514565b5082600901816009019081611dea9190614514565b5082600a0181600a019081611dff9190614514565b5082600e0160009054906101000a900460ff1681600e0160006101000a81548160ff02191690831515021790555082600f015481600f01819055508060100184600001519080600181540180825580915050600190039060005260206000200160009091909190915055600254816000018190555083606001518281518110611e8b57611e8a614192565b5b6020026020010151816004018190555083608001518281518110611eb257611eb1614192565b5b6020026020010151816005018190555083604001518281518110611ed957611ed8614192565b5b602002602001015181600b019081611ef191906145fc565b508360a001518281518110611f0957611f08614192565b5b602002602001015181600c019081611f2191906145fc565b508360c001518281518110611f3957611f38614192565b5b602002602001015181600d019081611f5191906145fc565b508360e001518281518110611f6957611f68614192565b5b602002602001015181601201819055508361010001518281518110611f9157611f90614192565b5b602002602001015181601301819055508360200151816014019081611fb691906145fc565b5060005b846101400151518110156121975760006040518060a001604052808761012001518481518110611fed57611fec614192565b5b60200260200101518152602001876101400151848151811061201257612011614192565b5b60200260200101518152602001876101800151848151811061203757612036614192565b5b60200260200101518152602001876101600151848151811061205c5761205b614192565b5b6020026020010151815260200160011515815250905082601501866101400151838151811061208e5761208d614192565b5b60200260200101519080600181540180825580915050600190039060005260206000200160009091909190915090816120c791906145fc565b50808360160187610140015184815181106120e5576120e4614192565b5b60200260200101516040516120fa91906146ff565b9081526020016040518091039020600082015181600001908161211d91906145fc565b50602082015181600101908161213391906145fc565b50604082015181600201908161214991906145fc565b50606082015181600301908161215f91906145fc565b5060808201518160040160006101000a81548160ff02191690831515021790555090505050808061218f9061430a565b915050611fba565b50600060025490806001815401808255809150506001900390600052602060002001600090919091909150558260110160025490806001815401808255809150506001900390600052602060002001600090919091909150555080806121fc9061430a565b915050611d0e565b505050565b6000818154811061221957600080fd5b906000526020600020016000915090505481565b60008080549050905090565b6000806001600060026000815461224f9061430a565b919050819055815260200190815260200160002090506002548160000181905550826000015181600101908161228591906145fc565b50826020015181600201908161229b91906145fc565b5082604001518160030190816122b191906145fc565b5082606001518160040181905550826080015181600501819055508260a0015181600601819055508260c001518160070190816122ee91906145fc565b508260e0015181600801908161230491906145fc565b5082610100015181600901908161231b91906145fc565b5082610120015181600a01908161233291906145fc565b5082610140015181600b01908161234991906145fc565b5082610160015181600c01908161236091906145fc565b5082610180015181600d01908161237791906145fc565b50826101a0015181600e0160006101000a81548160ff021916908315150217905550826101c0015181600f0181905550826101e001518160100190805190602001906123c4929190612f11565b508261020001518160110190805190602001906123e2929190612f11565b508261022001518160120181905550826102400151816013018190555082610260015181601401908161241591906145fc565b5060005b8361028001515181101561260e5760006040518060a00160405280866102800151848151811061244c5761244b614192565b5b6020026020010151600001518152602001866102800151848151811061247557612474614192565b5b6020026020010151602001518152602001866102800151848151811061249e5761249d614192565b5b602002602001015160400151815260200186610280015184815181106124c7576124c6614192565b5b60200260200101516060015181526020016001151581525090508260150185610280015183815181106124fd576124fc614192565b5b60200260200101516020015190806001815401808255809150506001900390600052602060002001600090919091909150908161253a91906145fc565b508083601601866102800151848151811061255857612557614192565b5b60200260200101516020015160405161257191906146ff565b9081526020016040518091039020600082015181600001908161259491906145fc565b5060208201518160010190816125aa91906145fc565b5060408201518160020190816125c091906145fc565b5060608201518160030190816125d691906145fc565b5060808201518160040160006101000a81548160ff0219169083151502179055509050505080806126069061430a565b915050612419565b50600060025490806001815401808255809150506001900390600052602060002001600090919091909150557fdaa872b103b86ce76d41c940c2d5709bec5fae546826ea8d60917d672344989860025460405161266b9190613aae565b60405180910390a1600254915050919050565b6000600160006002600081546126939061430a565b91905081905581526020019081526020016000209050600254816000018190555081600001518160010190816126c991906145fc565b5081602001518160020190816126df91906145fc565b5081604001518160030190816126f591906145fc565b5081606001518160040181905550816080015181600501819055508160a0015181600601819055508160c0015181600701908161273291906145fc565b508160e0015181600801908161274891906145fc565b5081610100015181600901908161275f91906145fc565b5081610120015181600a01908161277691906145fc565b5081610140015181600b01908161278d91906145fc565b5081610160015181600c0190816127a491906145fc565b5081610180015181600d0190816127bb91906145fc565b50816102200151816012018190555081610240015181601301819055508161026001518160140190816127ee91906145fc565b506000600254908060018154018082558091505060019003906000526020600020016000909190919091505560005b826101e001515181101561289d57600060016000856101e00151848151811061284957612848614192565b5b602002602001015181526020019081526020016000209050600181600e0160006101000a81548160ff02191690831515021790555060025481600f01819055505080806128959061430a565b91505061281d565b505050565b60025481565b600060016000876000815181106128c2576128c1614192565b5b602002602001015181526020019081526020016000209050600081600b0180546128eb906141f0565b90500361292d576040517f08c379a000000000000000000000000000000000000000000000000000000000815260040161292490614773565b60405180910390fd5b60606000604051806102a0016040528084600101805461294c906141f0565b80601f0160208091040260200160405190810160405280929190818152602001828054612978906141f0565b80156129c55780601f1061299a576101008083540402835291602001916129c5565b820191906000526020600020905b8154815290600101906020018083116129a857829003601f168201915b505050505081526020018460020180546129de906141f0565b80601f0160208091040260200160405190810160405280929190818152602001828054612a0a906141f0565b8015612a575780601f10612a2c57610100808354040283529160200191612a57565b820191906000526020600020905b815481529060010190602001808311612a3a57829003601f168201915b50505050508152602001846003018054612a70906141f0565b80601f0160208091040260200160405190810160405280929190818152602001828054612a9c906141f0565b8015612ae95780601f10612abe57610100808354040283529160200191612ae9565b820191906000526020600020905b815481529060010190602001808311612acc57829003601f168201915b50505050508152602001846004015481526020018460050154815260200184600601548152602001846007018054612b20906141f0565b80601f0160208091040260200160405190810160405280929190818152602001828054612b4c906141f0565b8015612b995780601f10612b6e57610100808354040283529160200191612b99565b820191906000526020600020905b815481529060010190602001808311612b7c57829003601f168201915b50505050508152602001846008018054612bb2906141f0565b80601f0160208091040260200160405190810160405280929190818152602001828054612bde906141f0565b8015612c2b5780601f10612c0057610100808354040283529160200191612c2b565b820191906000526020600020905b815481529060010190602001808311612c0e57829003601f168201915b50505050508152602001846009018054612c44906141f0565b80601f0160208091040260200160405190810160405280929190818152602001828054612c70906141f0565b8015612cbd5780601f10612c9257610100808354040283529160200191612cbd565b820191906000526020600020905b815481529060010190602001808311612ca057829003601f168201915b5050505050815260200184600a018054612cd6906141f0565b80601f0160208091040260200160405190810160405280929190818152602001828054612d02906141f0565b8015612d4f5780601f10612d2457610100808354040283529160200191612d4f565b820191906000526020600020905b815481529060010190602001808311612d3257829003601f168201915b50505050508152602001888152602001878152602001868152602001600015158152602001600081526020018981526020018381526020018460120154815260200184601301548152602001846014018054612daa906141f0565b80601f0160208091040260200160405190810160405280929190818152602001828054612dd6906141f0565b8015612e235780601f10612df857610100808354040283529160200191612e23565b820191906000526020600020905b815481529060010190602001808311612e0657829003601f168201915b50505050508152602001858152509050612e3c81612239565b50600183600e0160006101000a81548160ff02191690831515021790555060025483600f01819055505050505050505050565b604051806102a0016040528060608152602001606081526020016060815260200160008152602001600081526020016000815260200160608152602001606081526020016060815260200160608152602001606081526020016060815260200160608152602001600015158152602001600081526020016060815260200160608152602001600081526020016000815260200160608152602001606081525090565b828054828255906000526020600020908101928215612f4d579160200282015b82811115612f4c578251825591602001919060010190612f31565b5b509050612f5a9190612f5e565b5090565b5b80821115612f77576000816000905550600101612f5f565b5090565b6000604051905090565b600080fd5b600080fd5b6000819050919050565b612fa281612f8f565b8114612fad57600080fd5b50565b600081359050612fbf81612f99565b92915050565b600060208284031215612fdb57612fda612f85565b5b6000612fe984828501612fb0565b91505092915050565b600081519050919050565b600082825260208201905092915050565b60005b8381101561302c578082015181840152602081019050613011565b60008484015250505050565b6000601f19601f8301169050919050565b600061305482612ff2565b61305e8185612ffd565b935061306e81856020860161300e565b61307781613038565b840191505092915050565b61308b81612f8f565b82525050565b60008115159050919050565b6130a681613091565b82525050565b600081519050919050565b600082825260208201905092915050565b6000819050602082019050919050565b60006130e48383613082565b60208301905092915050565b6000602082019050919050565b6000613108826130ac565b61311281856130b7565b935061311d836130c8565b8060005b8381101561314e57815161313588826130d8565b9750613140836130f0565b925050600181019050613121565b5085935050505092915050565b600081519050919050565b600082825260208201905092915050565b6000819050602082019050919050565b600060a08301600083015184820360008601526131a48282613049565b915050602083015184820360208601526131be8282613049565b915050604083015184820360408601526131d88282613049565b915050606083015184820360608601526131f28282613049565b9150506080830151613207608086018261309d565b508091505092915050565b600061321e8383613187565b905092915050565b6000602082019050919050565b600061323e8261315b565b6132488185613166565b93508360208202850161325a85613177565b8060005b8581101561329657848403895281516132778582613212565b945061328283613226565b925060208a0199505060018101905061325e565b50829750879550505050505092915050565b60006102a08301600083015184820360008601526132c68282613049565b915050602083015184820360208601526132e08282613049565b915050604083015184820360408601526132fa8282613049565b915050606083015161330f6060860182613082565b5060808301516133226080860182613082565b5060a083015161333560a0860182613082565b5060c083015184820360c086015261334d8282613049565b91505060e083015184820360e08601526133678282613049565b9150506101008301518482036101008601526133838282613049565b91505061012083015184820361012086015261339f8282613049565b9150506101408301518482036101408601526133bb8282613049565b9150506101608301518482036101608601526133d78282613049565b9150506101808301518482036101808601526133f38282613049565b9150506101a083015161340a6101a086018261309d565b506101c083015161341f6101c0860182613082565b506101e08301518482036101e086015261343982826130fd565b91505061020083015184820361020086015261345582826130fd565b91505061022083015161346c610220860182613082565b50610240830151613481610240860182613082565b5061026083015184820361026086015261349b8282613049565b9150506102808301518482036102808601526134b78282613233565b9150508091505092915050565b600060208201905081810360008301526134de81846132a8565b905092915050565b600080fd5b7f4e487b7100000000000000000000000000000000000000000000000000000000600052604160045260246000fd5b61352382613038565b810181811067ffffffffffffffff82111715613542576135416134eb565b5b80604052505050565b6000613555612f7b565b9050613561828261351a565b919050565b600080fd5b600080fd5b600080fd5b600067ffffffffffffffff8211156135905761358f6134eb565b5b61359982613038565b9050602081019050919050565b82818337600083830152505050565b60006135c86135c384613575565b61354b565b9050828152602081018484840111156135e4576135e3613570565b5b6135ef8482856135a6565b509392505050565b600082601f83011261360c5761360b61356b565b5b813561361c8482602086016135b5565b91505092915050565b600067ffffffffffffffff8211156136405761363f6134eb565b5b602082029050602081019050919050565b600080fd5b600061366961366484613625565b61354b565b9050808382526020820190506020840283018581111561368c5761368b613651565b5b835b818110156136d357803567ffffffffffffffff8111156136b1576136b061356b565b5b8086016136be89826135f7565b8552602085019450505060208101905061368e565b5050509392505050565b600082601f8301126136f2576136f161356b565b5b8135613702848260208601613656565b91505092915050565b600067ffffffffffffffff821115613726576137256134eb565b5b602082029050602081019050919050565b600061374a6137458461370b565b61354b565b9050808382526020820190506020840283018581111561376d5761376c613651565b5b835b8181101561379657806137828882612fb0565b84526020840193505060208101905061376f565b5050509392505050565b600082601f8301126137b5576137b461356b565b5b81356137c5848260208601613737565b91505092915050565b60006101a082840312156137e5576137e46134e6565b5b6137f06101a061354b565b9050600061380084828501612fb0565b600083015250602082013567ffffffffffffffff81111561382457613823613566565b5b613830848285016135f7565b602083015250604082013567ffffffffffffffff81111561385457613853613566565b5b613860848285016136dd565b604083015250606082013567ffffffffffffffff81111561388457613883613566565b5b613890848285016137a0565b606083015250608082013567ffffffffffffffff8111156138b4576138b3613566565b5b6138c0848285016137a0565b60808301525060a082013567ffffffffffffffff8111156138e4576138e3613566565b5b6138f0848285016136dd565b60a08301525060c082013567ffffffffffffffff81111561391457613913613566565b5b613920848285016136dd565b60c08301525060e082013567ffffffffffffffff81111561394457613943613566565b5b613950848285016137a0565b60e08301525061010082013567ffffffffffffffff81111561397557613974613566565b5b613981848285016137a0565b6101008301525061012082013567ffffffffffffffff8111156139a7576139a6613566565b5b6139b3848285016136dd565b6101208301525061014082013567ffffffffffffffff8111156139d9576139d8613566565b5b6139e5848285016136dd565b6101408301525061016082013567ffffffffffffffff811115613a0b57613a0a613566565b5b613a17848285016136dd565b6101608301525061018082013567ffffffffffffffff811115613a3d57613a3c613566565b5b613a49848285016136dd565b6101808301525092915050565b600060208284031215613a6c57613a6b612f85565b5b600082013567ffffffffffffffff811115613a8a57613a89612f8a565b5b613a96848285016137ce565b91505092915050565b613aa881612f8f565b82525050565b6000602082019050613ac36000830184613a9f565b92915050565b613ad281613091565b8114613add57600080fd5b50565b600081359050613aef81613ac9565b92915050565b600067ffffffffffffffff821115613b1057613b0f6134eb565b5b602082029050602081019050919050565b600060a08284031215613b3757613b366134e6565b5b613b4160a061354b565b9050600082013567ffffffffffffffff811115613b6157613b60613566565b5b613b6d848285016135f7565b600083015250602082013567ffffffffffffffff811115613b9157613b90613566565b5b613b9d848285016135f7565b602083015250604082013567ffffffffffffffff811115613bc157613bc0613566565b5b613bcd848285016135f7565b604083015250606082013567ffffffffffffffff811115613bf157613bf0613566565b5b613bfd848285016135f7565b6060830152506080613c1184828501613ae0565b60808301525092915050565b6000613c30613c2b84613af5565b61354b565b90508083825260208201905060208402830185811115613c5357613c52613651565b5b835b81811015613c9a57803567ffffffffffffffff811115613c7857613c7761356b565b5b808601613c858982613b21565b85526020850194505050602081019050613c55565b5050509392505050565b600082601f830112613cb957613cb861356b565b5b8135613cc9848260208601613c1d565b91505092915050565b60006102a08284031215613ce957613ce86134e6565b5b613cf46102a061354b565b9050600082013567ffffffffffffffff811115613d1457613d13613566565b5b613d20848285016135f7565b600083015250602082013567ffffffffffffffff811115613d4457613d43613566565b5b613d50848285016135f7565b602083015250604082013567ffffffffffffffff811115613d7457613d73613566565b5b613d80848285016135f7565b6040830152506060613d9484828501612fb0565b6060830152506080613da884828501612fb0565b60808301525060a0613dbc84828501612fb0565b60a08301525060c082013567ffffffffffffffff811115613de057613ddf613566565b5b613dec848285016135f7565b60c08301525060e082013567ffffffffffffffff811115613e1057613e0f613566565b5b613e1c848285016135f7565b60e08301525061010082013567ffffffffffffffff811115613e4157613e40613566565b5b613e4d848285016135f7565b6101008301525061012082013567ffffffffffffffff811115613e7357613e72613566565b5b613e7f848285016135f7565b6101208301525061014082013567ffffffffffffffff811115613ea557613ea4613566565b5b613eb1848285016135f7565b6101408301525061016082013567ffffffffffffffff811115613ed757613ed6613566565b5b613ee3848285016135f7565b6101608301525061018082013567ffffffffffffffff811115613f0957613f08613566565b5b613f15848285016135f7565b610180830152506101a0613f2b84828501613ae0565b6101a0830152506101c0613f4184828501612fb0565b6101c0830152506101e082013567ffffffffffffffff811115613f6757613f66613566565b5b613f73848285016137a0565b6101e08301525061020082013567ffffffffffffffff811115613f9957613f98613566565b5b613fa5848285016137a0565b61020083015250610220613fbb84828501612fb0565b61022083015250610240613fd184828501612fb0565b6102408301525061026082013567ffffffffffffffff811115613ff757613ff6613566565b5b614003848285016135f7565b6102608301525061028082013567ffffffffffffffff81111561402957614028613566565b5b61403584828501613ca4565b6102808301525092915050565b60006020828403121561405857614057612f85565b5b600082013567ffffffffffffffff81111561407657614075612f8a565b5b61408284828501613cd2565b91505092915050565b600080600080600060a086880312156140a7576140a6612f85565b5b600086013567ffffffffffffffff8111156140c5576140c4612f8a565b5b6140d1888289016137a0565b955050602086013567ffffffffffffffff8111156140f2576140f1612f8a565b5b6140fe888289016135f7565b945050604086013567ffffffffffffffff81111561411f5761411e612f8a565b5b61412b888289016135f7565b935050606086013567ffffffffffffffff81111561414c5761414b612f8a565b5b614158888289016135f7565b925050608086013567ffffffffffffffff81111561417957614178612f8a565b5b61418588828901613ca4565b9150509295509295909350565b7f4e487b7100000000000000000000000000000000000000000000000000000000600052603260045260246000fd5b7f4e487b7100000000000000000000000000000000000000000000000000000000600052602260045260246000fd5b6000600282049050600182168061420857607f821691505b60208210810361421b5761421a6141c1565b5b50919050565b600081905092915050565b60008190508160005260206000209050919050565b6000815461424e816141f0565b6142588186614221565b945060018216600081146142735760018114614288576142bb565b60ff19831686528115158202860193506142bb565b6142918561422c565b60005b838110156142b357815481890152600182019150602081019050614294565b838801955050505b50505092915050565b60006142d08284614241565b915081905092915050565b7f4e487b7100000000000000000000000000000000000000000000000000000000600052601160045260246000fd5b600061431582612f8f565b91507fffffffffffffffffffffffffffffffffffffffffffffffffffffffffffffffff8203614347576143466142db565b5b600182019050919050565b600081549050614361816141f0565b9050919050565b60008190508160005260206000209050919050565b60006020601f8301049050919050565b600082821b905092915050565b6000600883026143ca7fffffffffffffffffffffffffffffffffffffffffffffffffffffffffffffffff8261438d565b6143d4868361438d565b95508019841693508086168417925050509392505050565b6000819050919050565b600061441161440c61440784612f8f565b6143ec565b612f8f565b9050919050565b6000819050919050565b61442b836143f6565b61443f61443782614418565b84845461439a565b825550505050565b600090565b614454614447565b61445f818484614422565b505050565b5b818110156144835761447860008261444c565b600181019050614465565b5050565b601f8211156144c8576144998161422c565b6144a28461437d565b810160208510156144b1578190505b6144c56144bd8561437d565b830182614464565b50505b505050565b600082821c905092915050565b60006144eb600019846008026144cd565b1980831691505092915050565b600061450483836144da565b9150826002028217905092915050565b8181036145225750506145fa565b61452b82614352565b67ffffffffffffffff811115614544576145436134eb565b5b61454e82546141f0565b614559828285614487565b6000601f8311600181146145885760008415614576578287015490505b61458085826144f8565b8655506145f3565b601f19841661459687614368565b96506145a18661422c565b60005b828110156145c9578489015482556001820191506001850194506020810190506145a4565b868310156145e657848901546145e2601f8916826144da565b8355505b6001600288020188555050505b5050505050505b565b61460582612ff2565b67ffffffffffffffff81111561461e5761461d6134eb565b5b61462882546141f0565b614633828285614487565b600060209050601f8311600181146146665760008415614654578287015190505b61465e85826144f8565b8655506146c6565b601f1984166146748661422c565b60005b8281101561469c57848901518255600182019150602085019450602081019050614677565b868310156146b957848901516146b5601f8916826144da565b8355505b6001600288020188555050505b505050505050565b60006146d982612ff2565b6146e38185614221565b93506146f381856020860161300e565b80840191505092915050565b600061470b82846146ce565b915081905092915050565b600082825260208201905092915050565b7f50726f706572747920646f6573206e6f74206578697374000000000000000000600082015250565b600061475d601783614716565b915061476882614727565b602082019050919050565b6000602082019050818103600083015261478c81614750565b905091905056fea2646970667358221220b92193abc8efe90993b6a2d1a0af2ef7eb7a20fb5e885cd3a2cbbfcff6d9ec2264736f6c63430008110033",
  "immutableReferences": {},
  "source": "// SPDX-License-Identifier: MIT\r\npragma solidity ^0.8.0;\r\n\r\ncontract LandRegistry {\r\n    // all land id stored\r\n    uint256[] public registerdLands;\r\n\r\n    event sendPropertyId(uint256 _id);\r\n\r\n    function getRegisteredLandCount() public view returns (uint256) {\r\n        return registerdLands.length;\r\n    }\r\n\r\n    struct document {\r\n        string docId;\r\n        string name;\r\n        string link;\r\n        string hash;\r\n        bool verified;\r\n    }\r\n\r\n    struct User {\r\n        string firstName;\r\n        string lastName;\r\n        string aadharCardNumber;\r\n        string panCardNumber;\r\n        string[] addressProofs;\r\n    }\r\n\r\n    struct Property {\r\n        // property details\r\n        uint256 propertyId;\r\n        string propertyHouseNumber;\r\n        string propertyStreetName;\r\n        string propertyType;\r\n        uint256 propertyLength;\r\n        uint256 propertyWidth;\r\n        uint256 propertyPincode;\r\n        string propertyState;\r\n        string propertyVillage;\r\n        string propertyDistrict;\r\n        string propertyTaluka;\r\n        // owner details\r\n        string ownerName;\r\n        string aadharCardNumber;\r\n        string panCardNumber;\r\n        // transfer details (if any)\r\n        bool transfered;\r\n        uint256 transferedTo;\r\n        uint256[] transferedFrom;\r\n        uint256[] propertySplitLandId;\r\n        // ownership details\r\n        uint256 surveyNumber;\r\n        uint256 subSurveyNumber;\r\n        string createdOn;\r\n        // documents\r\n        string[] documentNames;\r\n        mapping(string => document) documents;\r\n    }\r\n\r\n    // use previous Property struct to create new property\r\n    struct inputvariables {\r\n        // property details\r\n        string propertyHouseNumber;\r\n        string propertyStreetName;\r\n        string propertyType;\r\n        uint256 propertyLength;\r\n        uint256 propertyWidth;\r\n        uint256 propertyPincode;\r\n        string propertyState;\r\n        string propertyVillage;\r\n        string propertyDistrict;\r\n        string propertyTaluka;\r\n        // owner details\r\n        string ownerName;\r\n        string aadharCardNumber;\r\n        string panCardNumber;\r\n        // transfer details (if any)\r\n        bool transfered;\r\n        uint256 transferedTo;\r\n        uint256[] transferedFrom;\r\n        uint256[] propertySplitLandId;\r\n        // ownership details\r\n        uint256 surveyNumber;\r\n        uint256 subSurveyNumber;\r\n        string createdOn;\r\n        // documents\r\n        document[] documents;\r\n    }\r\n\r\n    struct outputvariables {\r\n        // uint256 propertyId;\r\n        // property details\r\n        string propertyHouseNumber;\r\n        string propertyStreetName;\r\n        string propertyType;\r\n        uint256 propertyLength;\r\n        uint256 propertyWidth;\r\n        uint256 propertyPincode;\r\n        string propertyState;\r\n        string propertyVillage;\r\n        string propertyDistrict;\r\n        string propertyTaluka;\r\n        // owner details\r\n        string ownerName;\r\n        string aadharCardNumber;\r\n        string panCardNumber;\r\n        // transfer details (if any)\r\n        bool transfered;\r\n        uint256 transferedTo;\r\n        uint256[] transferedFrom;\r\n        uint256[] propertySplitLandId;\r\n        // ownership details\r\n        uint256 surveyNumber;\r\n        uint256 subSurveyNumber;\r\n        string createdOn;\r\n        // documents\r\n        document[] documents;\r\n        // string[] docName;\r\n        // string[] docLink;\r\n        // string[] dochash;\r\n        // bool[] docVerified;\r\n    }\r\n\r\n    // we are not using public below as solidity doesnt allow netested fetching by default\r\n    mapping(uint256 => Property) properties;\r\n    uint256 public propertyCount;\r\n\r\n    // event PropertyMerged(uint256 id1, uint256 id2, uint256 mergedId);\r\n    // event PropertySplit(uint256 id, uint256 area1, uint256 area2, uint256 splitId1, uint256 splitId2);\r\n\r\n    function registerNewProperty(\r\n        // fill all the details of the property\r\n        inputvariables memory variable\r\n    ) public returns (uint256) {\r\n        Property storage tempProperty = properties[++propertyCount];\r\n        tempProperty.propertyId = propertyCount;\r\n\r\n        // property details\r\n        tempProperty.propertyHouseNumber = variable.propertyHouseNumber;\r\n        tempProperty.propertyStreetName = variable.propertyStreetName;\r\n        tempProperty.propertyType = variable.propertyType;\r\n        tempProperty.propertyLength = variable.propertyLength;\r\n        tempProperty.propertyWidth = variable.propertyWidth;\r\n        tempProperty.propertyPincode = variable.propertyPincode;\r\n        tempProperty.propertyState = variable.propertyState;\r\n        tempProperty.propertyVillage = variable.propertyVillage;\r\n        tempProperty.propertyDistrict = variable.propertyDistrict;\r\n        tempProperty.propertyTaluka = variable.propertyTaluka;\r\n\r\n        // owner details\r\n        tempProperty.ownerName = variable.ownerName;\r\n        tempProperty.aadharCardNumber = variable.aadharCardNumber;\r\n        tempProperty.panCardNumber = variable.panCardNumber;\r\n\r\n        // transfer details (if any)\r\n        tempProperty.transfered = variable.transfered;\r\n        tempProperty.transferedTo = variable.transferedTo;\r\n        tempProperty.transferedFrom = variable.transferedFrom;\r\n        tempProperty.propertySplitLandId = variable.propertySplitLandId;\r\n\r\n        // ownership details\r\n        tempProperty.surveyNumber = variable.surveyNumber;\r\n        tempProperty.subSurveyNumber = variable.subSurveyNumber;\r\n        tempProperty.createdOn = variable.createdOn;\r\n\r\n        for (uint256 i = 0; i < variable.documents.length; i++) {\r\n            document memory newDocument = document(\r\n                variable.documents[i].docId,\r\n                variable.documents[i].name,\r\n                variable.documents[i].link,\r\n                variable.documents[i].hash,\r\n                true\r\n            );\r\n            tempProperty.documentNames.push(variable.documents[i].name);\r\n            tempProperty.documents[variable.documents[i].name] = newDocument;\r\n        }\r\n\r\n        registerdLands.push(propertyCount);\r\n        emit sendPropertyId(propertyCount);\r\n        return propertyCount;\r\n    }\r\n\r\n    function transferOwnership(\r\n        // the input is taken as array because other methods give out error\r\n        uint256[] memory _propertyId,\r\n        string memory _newOwnerName,\r\n        string memory _newOwnerAadhaarCardNumber,\r\n        string memory _newOwnerPanCardNumber,\r\n        // documents\r\n        document[] memory documents\r\n    ) public {\r\n        Property storage property = properties[_propertyId[0]];\r\n        require(\r\n            bytes(property.ownerName).length != 0,\r\n            \"Property does not exist\"\r\n        );\r\n        // property.ownerName = _newOwnerName;\r\n        // property.aadharCardNumber = _newOwnerAadhaarCardNumber;\r\n        // property.panCardNumber = _newOwnerPanCardNumber;\r\n        // property.addressProofA = _newOwnerAddressProofA;\r\n        // property.addressProofB = _newOwnerAddressProofB;\r\n\r\n        uint256[] memory splitLandID;\r\n        // setting struct values\r\n        inputvariables memory newProperty = inputvariables(\r\n            property.propertyHouseNumber,\r\n            property.propertyStreetName,\r\n            property.propertyType,\r\n            property.propertyLength,\r\n            property.propertyWidth,\r\n            property.propertyPincode,\r\n            property.propertyState,\r\n            property.propertyVillage,\r\n            property.propertyDistrict,\r\n            property.propertyTaluka,\r\n            _newOwnerName,\r\n            _newOwnerAadhaarCardNumber,\r\n            _newOwnerPanCardNumber,\r\n            false,\r\n            0,\r\n            // below is transferred from\r\n            _propertyId,\r\n            splitLandID,\r\n            property.surveyNumber,\r\n            property.subSurveyNumber,\r\n            property.createdOn,\r\n            documents\r\n        );\r\n        // for (uint256 i = 0; i < documents.length; i++) {\r\n        //     document memory newDocument = document(\r\n        //         documents[i].name,\r\n        //         documents[i].link,\r\n        //         documents[i].hash,\r\n        //         true\r\n        //     );\r\n        //     newProperty.documentNames.push(documents[i].name);\r\n        //     newProperty.documents[documents[i].name] = newDocument;\r\n        // }\r\n        // calling registerNewProperty Function to create new successor\r\n        registerNewProperty(newProperty);\r\n\r\n        property.transfered = true;\r\n        property.transferedTo = propertyCount;\r\n    }\r\n\r\n    function mergeProperties(inputvariables memory variable) public {\r\n        // creating new merged property\r\n        Property storage property = properties[++propertyCount];\r\n\r\n        property.propertyId = propertyCount;\r\n        property.propertyHouseNumber = variable.propertyHouseNumber;\r\n        property.propertyStreetName = variable.propertyStreetName;\r\n        property.propertyType = variable.propertyType;\r\n        property.propertyLength = variable.propertyLength;\r\n        property.propertyWidth = variable.propertyWidth;\r\n        property.propertyPincode = variable.propertyPincode;\r\n        property.propertyState = variable.propertyState;\r\n        property.propertyVillage = variable.propertyVillage;\r\n        property.propertyDistrict = variable.propertyDistrict;\r\n        property.propertyTaluka = variable.propertyTaluka;\r\n\r\n        // owner details\r\n        property.ownerName = variable.ownerName;\r\n        property.aadharCardNumber = variable.aadharCardNumber;\r\n        property.panCardNumber = variable.panCardNumber;\r\n\r\n        // ownership details\r\n        property.surveyNumber = variable.surveyNumber;\r\n        property.subSurveyNumber = variable.subSurveyNumber;\r\n        property.createdOn = variable.createdOn;\r\n\r\n        // registering new mapping of land\r\n        registerdLands.push(propertyCount);\r\n\r\n        // setting transfered status to all the merged properties\r\n        for (uint256 i = 0; i < variable.transferedFrom.length; i++) {\r\n            Property storage tempProperty = properties[\r\n                variable.transferedFrom[i]\r\n            ];\r\n            // setting successor\r\n            tempProperty.transfered = true;\r\n            tempProperty.transferedTo = propertyCount;\r\n        }\r\n    }\r\n\r\n    struct splitPropertyInputs {\r\n        uint256 _propertyId;\r\n        string _createdOn;\r\n        string[] _ownerName;\r\n        uint256[] _propertyLength;\r\n        uint256[] _propertyWidth;\r\n        string[] _ownerAadhaarCardNumber;\r\n        string[] _ownerPanCardNumber;\r\n        uint256[] _surveyNumber;\r\n        uint256[] _subSurveyNumber;\r\n        // documents\r\n        string[] _documentsId;\r\n        string[] _documentsName;\r\n        string[] _documentsHash;\r\n        string[] _documentsLink;\r\n    }\r\n\r\n    // parameter example:- (1,\"234234\",[\"harsh\",\"krishna\"],[\"123\",\"123\"],[\"addr\",\"addr\"],[45,76],[\"456\",\"456\"],[\"789\",\"789\"])\r\n    function splitProperty(splitPropertyInputs memory inputParameters) public {\r\n        Property storage ancestor = properties[inputParameters._propertyId];\r\n        // setting transfered true\r\n        ancestor.transfered = true;\r\n\r\n        // looping through area array as it denotes the number of land split into\r\n        for (uint256 i = 0; i < inputParameters._propertyLength.length; i++) {\r\n            Property storage tempProperty = properties[++propertyCount];\r\n\r\n            // values inherited from previous land\r\n            // property details\r\n            tempProperty.propertyHouseNumber = ancestor.propertyHouseNumber;\r\n            tempProperty.propertyStreetName = ancestor.propertyStreetName;\r\n            tempProperty.propertyType = ancestor.propertyType;\r\n            tempProperty.propertyLength = ancestor.propertyLength;\r\n            tempProperty.propertyWidth = ancestor.propertyWidth;\r\n            tempProperty.propertyPincode = ancestor.propertyPincode;\r\n            tempProperty.propertyState = ancestor.propertyState;\r\n            tempProperty.propertyVillage = ancestor.propertyVillage;\r\n            tempProperty.propertyDistrict = ancestor.propertyDistrict;\r\n            tempProperty.propertyTaluka = ancestor.propertyTaluka;\r\n\r\n            // transfer details (if any)\r\n            tempProperty.transfered = ancestor.transfered;\r\n            tempProperty.transferedTo = ancestor.transferedTo;\r\n\r\n            // split logic\r\n            tempProperty.transferedFrom.push(inputParameters._propertyId);\r\n\r\n            // new values of property\r\n            tempProperty.propertyId = propertyCount;\r\n            tempProperty.propertyLength = inputParameters._propertyLength[i];\r\n            tempProperty.propertyWidth = inputParameters._propertyWidth[i];\r\n\r\n            tempProperty.ownerName = inputParameters._ownerName[i];\r\n            tempProperty.aadharCardNumber = inputParameters\r\n                ._ownerAadhaarCardNumber[i];\r\n            tempProperty.panCardNumber = inputParameters._ownerPanCardNumber[i];\r\n            tempProperty.surveyNumber = inputParameters._surveyNumber[i];\r\n            tempProperty.subSurveyNumber = inputParameters._subSurveyNumber[i];\r\n            tempProperty.createdOn = inputParameters._createdOn;\r\n\r\n            for (\r\n                uint256 j = 0;\r\n                j < inputParameters._documentsName.length;\r\n                j++\r\n            ) {\r\n                document memory newDocument = document(\r\n                    inputParameters._documentsId[j],\r\n                    inputParameters._documentsName[j],\r\n                    inputParameters._documentsLink[j],\r\n                    inputParameters._documentsHash[j],\r\n                    true\r\n                );\r\n                tempProperty.documentNames.push(\r\n                    inputParameters._documentsName[j]\r\n                );\r\n                tempProperty.documents[\r\n                    inputParameters._documentsName[j]\r\n                ] = newDocument;\r\n            }\r\n\r\n            // registering new mapping of land\r\n            registerdLands.push(propertyCount);\r\n\r\n            // setting splitted land values\r\n            ancestor.propertySplitLandId.push(propertyCount);\r\n        }\r\n    }\r\n\r\n    function getProperty(\r\n        uint256 _propertyId\r\n    ) public view returns (outputvariables memory) {\r\n        Property storage tempProperty = properties[_propertyId];\r\n\r\n        // filling up documents\r\n        document[] memory documents;\r\n        // string[] memory docLink;\r\n        // string[] memory dochash;\r\n        // bool[] memory docVerified;\r\n        // for (\r\n        //     uint256 i = 0;\r\n        //     i < tempProperty.documentNames.length || i < 7;\r\n        //     i++\r\n        // ) {\r\n        // string memory documentName = tempProperty.documentNames[i];\r\n        // docName.push(tempProperty.documents[documentName].name);\r\n        // docLink.push(tempProperty.documents[documentName].link);\r\n        // dochash.push(tempProperty.documents[documentName].hash);\r\n        // docVerified.push(tempProperty.documents[documentName].verified);\r\n        documents[0] = tempProperty.documents[tempProperty.documentNames[0]];\r\n        documents[1] = tempProperty.documents[tempProperty.documentNames[1]];\r\n        documents[2] = tempProperty.documents[tempProperty.documentNames[2]];\r\n        documents[3] = tempProperty.documents[tempProperty.documentNames[3]];\r\n        documents[4] = tempProperty.documents[tempProperty.documentNames[4]];\r\n        documents[5] = tempProperty.documents[tempProperty.documentNames[5]];\r\n        documents[6] = tempProperty.documents[tempProperty.documentNames[6]];\r\n\r\n        outputvariables memory returnValue = outputvariables(\r\n            tempProperty.propertyHouseNumber,\r\n            tempProperty.propertyStreetName,\r\n            tempProperty.propertyType,\r\n            tempProperty.propertyLength,\r\n            tempProperty.propertyWidth,\r\n            tempProperty.propertyPincode,\r\n            tempProperty.propertyState,\r\n            tempProperty.propertyVillage,\r\n            tempProperty.propertyDistrict,\r\n            tempProperty.propertyTaluka,\r\n            // owner details\r\n            tempProperty.ownerName,\r\n            tempProperty.aadharCardNumber,\r\n            tempProperty.panCardNumber,\r\n            // transfer details (if any)\r\n            tempProperty.transfered,\r\n            tempProperty.transferedTo,\r\n            tempProperty.transferedFrom,\r\n            tempProperty.propertySplitLandId,\r\n            // ownership details\r\n            tempProperty.surveyNumber,\r\n            tempProperty.subSurveyNumber,\r\n            tempProperty.createdOn,\r\n            // documents\r\n            documents\r\n        );\r\n        return returnValue;\r\n    }\r\n}\r\n",
  "sourcePath": "C:\\codingFiles\\projects\\land_registry_solidity\\contracts\\LandRegistery.sol",
  "compiler": {
    "name": "solc",
    "version": "0.8.17+commit.8df45f5f.Emscripten.clang"
  },
  "schemaVersion": "3.4.13",
  "updatedAt": "2023-04-11T17:49:45.409Z",
  "networkType": "ethereum",
  "devdoc": {
    "kind": "dev",
    "methods": {},
    "version": 1
  },
  "userdoc": {
    "kind": "user",
    "methods": {},
    "version": 1
  }
}