{
  "contractName": "LandRegistry",
  "abi": [
    {
      "anonymous": false,
      "inputs": [
        {
          "indexed": false,
          "internalType": "uint256",
          "name": "_id",
          "type": "uint256"
        }
      ],
      "name": "sendPropertyId",
      "type": "event"
    },
    {
      "inputs": [],
      "name": "propertyCount",
      "outputs": [
        {
          "internalType": "uint256",
          "name": "",
          "type": "uint256"
        }
      ],
      "stateMutability": "view",
      "type": "function",
      "constant": true
    },
    {
      "inputs": [
        {
          "internalType": "uint256",
          "name": "",
          "type": "uint256"
        }
      ],
      "name": "registerdLands",
      "outputs": [
        {
          "internalType": "uint256",
          "name": "",
          "type": "uint256"
        }
      ],
      "stateMutability": "view",
      "type": "function",
      "constant": true
    },
    {
      "inputs": [],
      "name": "getRegisteredLandCount",
      "outputs": [
        {
          "internalType": "uint256",
          "name": "",
          "type": "uint256"
        }
      ],
      "stateMutability": "view",
      "type": "function",
      "constant": true
    },
    {
      "inputs": [
        {
          "components": [
            {
              "internalType": "string",
              "name": "propertyHouseNumber",
              "type": "string"
            },
            {
              "internalType": "string",
              "name": "propertyStreetName",
              "type": "string"
            },
            {
              "internalType": "string",
              "name": "propertyType",
              "type": "string"
            },
            {
              "internalType": "uint256",
              "name": "propertyLength",
              "type": "uint256"
            },
            {
              "internalType": "uint256",
              "name": "propertyWidth",
              "type": "uint256"
            },
            {
              "internalType": "uint256",
              "name": "propertyPincode",
              "type": "uint256"
            },
            {
              "internalType": "string",
              "name": "propertyState",
              "type": "string"
            },
            {
              "internalType": "string",
              "name": "propertyVillage",
              "type": "string"
            },
            {
              "internalType": "string",
              "name": "propertyDistrict",
              "type": "string"
            },
            {
              "internalType": "string",
              "name": "propertyTaluka",
              "type": "string"
            },
            {
              "internalType": "string",
              "name": "ownerName",
              "type": "string"
            },
            {
              "internalType": "string",
              "name": "aadharCardNumber",
              "type": "string"
            },
            {
              "internalType": "string",
              "name": "panCardNumber",
              "type": "string"
            },
            {
              "internalType": "bool",
              "name": "transfered",
              "type": "bool"
            },
            {
              "internalType": "uint256",
              "name": "transferedTo",
              "type": "uint256"
            },
            {
              "internalType": "uint256[]",
              "name": "transferedFrom",
              "type": "uint256[]"
            },
            {
              "internalType": "uint256[]",
              "name": "propertySplitLandId",
              "type": "uint256[]"
            },
            {
              "internalType": "uint256",
              "name": "surveyNumber",
              "type": "uint256"
            },
            {
              "internalType": "uint256",
              "name": "subSurveyNumber",
              "type": "uint256"
            },
            {
              "internalType": "string",
              "name": "createdOn",
              "type": "string"
            },
            {
              "components": [
                {
                  "internalType": "string",
                  "name": "docId",
                  "type": "string"
                },
                {
                  "internalType": "string",
                  "name": "name",
                  "type": "string"
                },
                {
                  "internalType": "string",
                  "name": "link",
                  "type": "string"
                },
                {
                  "internalType": "string",
                  "name": "hash",
                  "type": "string"
                },
                {
                  "internalType": "bool",
                  "name": "verified",
                  "type": "bool"
                }
              ],
              "internalType": "struct LandRegistry.document[]",
              "name": "documents",
              "type": "tuple[]"
            }
          ],
          "internalType": "struct LandRegistry.inputvariables",
          "name": "variable",
          "type": "tuple"
        }
      ],
      "name": "registerNewProperty",
      "outputs": [
        {
          "internalType": "uint256",
          "name": "",
          "type": "uint256"
        }
      ],
      "stateMutability": "nonpayable",
      "type": "function"
    },
    {
      "inputs": [
        {
          "internalType": "uint256[]",
          "name": "_propertyId",
          "type": "uint256[]"
        },
        {
          "internalType": "string",
          "name": "_newOwnerName",
          "type": "string"
        },
        {
          "internalType": "string",
          "name": "_newOwnerAadhaarCardNumber",
          "type": "string"
        },
        {
          "internalType": "string",
          "name": "_newOwnerPanCardNumber",
          "type": "string"
        },
        {
          "components": [
            {
              "internalType": "string",
              "name": "docId",
              "type": "string"
            },
            {
              "internalType": "string",
              "name": "name",
              "type": "string"
            },
            {
              "internalType": "string",
              "name": "link",
              "type": "string"
            },
            {
              "internalType": "string",
              "name": "hash",
              "type": "string"
            },
            {
              "internalType": "bool",
              "name": "verified",
              "type": "bool"
            }
          ],
          "internalType": "struct LandRegistry.document[]",
          "name": "documents",
          "type": "tuple[]"
        }
      ],
      "name": "transferOwnership",
      "outputs": [],
      "stateMutability": "nonpayable",
      "type": "function"
    },
    {
      "inputs": [
        {
          "components": [
            {
              "internalType": "string",
              "name": "propertyHouseNumber",
              "type": "string"
            },
            {
              "internalType": "string",
              "name": "propertyStreetName",
              "type": "string"
            },
            {
              "internalType": "string",
              "name": "propertyType",
              "type": "string"
            },
            {
              "internalType": "uint256",
              "name": "propertyLength",
              "type": "uint256"
            },
            {
              "internalType": "uint256",
              "name": "propertyWidth",
              "type": "uint256"
            },
            {
              "internalType": "uint256",
              "name": "propertyPincode",
              "type": "uint256"
            },
            {
              "internalType": "string",
              "name": "propertyState",
              "type": "string"
            },
            {
              "internalType": "string",
              "name": "propertyVillage",
              "type": "string"
            },
            {
              "internalType": "string",
              "name": "propertyDistrict",
              "type": "string"
            },
            {
              "internalType": "string",
              "name": "propertyTaluka",
              "type": "string"
            },
            {
              "internalType": "string",
              "name": "ownerName",
              "type": "string"
            },
            {
              "internalType": "string",
              "name": "aadharCardNumber",
              "type": "string"
            },
            {
              "internalType": "string",
              "name": "panCardNumber",
              "type": "string"
            },
            {
              "internalType": "bool",
              "name": "transfered",
              "type": "bool"
            },
            {
              "internalType": "uint256",
              "name": "transferedTo",
              "type": "uint256"
            },
            {
              "internalType": "uint256[]",
              "name": "transferedFrom",
              "type": "uint256[]"
            },
            {
              "internalType": "uint256[]",
              "name": "propertySplitLandId",
              "type": "uint256[]"
            },
            {
              "internalType": "uint256",
              "name": "surveyNumber",
              "type": "uint256"
            },
            {
              "internalType": "uint256",
              "name": "subSurveyNumber",
              "type": "uint256"
            },
            {
              "internalType": "string",
              "name": "createdOn",
              "type": "string"
            },
            {
              "components": [
                {
                  "internalType": "string",
                  "name": "docId",
                  "type": "string"
                },
                {
                  "internalType": "string",
                  "name": "name",
                  "type": "string"
                },
                {
                  "internalType": "string",
                  "name": "link",
                  "type": "string"
                },
                {
                  "internalType": "string",
                  "name": "hash",
                  "type": "string"
                },
                {
                  "internalType": "bool",
                  "name": "verified",
                  "type": "bool"
                }
              ],
              "internalType": "struct LandRegistry.document[]",
              "name": "documents",
              "type": "tuple[]"
            }
          ],
          "internalType": "struct LandRegistry.inputvariables",
          "name": "variable",
          "type": "tuple"
        }
      ],
      "name": "mergeProperties",
      "outputs": [],
      "stateMutability": "nonpayable",
      "type": "function"
    },
    {
      "inputs": [
        {
          "components": [
            {
              "internalType": "uint256",
              "name": "_propertyId",
              "type": "uint256"
            },
            {
              "internalType": "string",
              "name": "_createdOn",
              "type": "string"
            },
            {
              "internalType": "string[]",
              "name": "_ownerName",
              "type": "string[]"
            },
            {
              "internalType": "uint256[]",
              "name": "_propertyLength",
              "type": "uint256[]"
            },
            {
              "internalType": "uint256[]",
              "name": "_propertyWidth",
              "type": "uint256[]"
            },
            {
              "internalType": "string[]",
              "name": "_ownerAadhaarCardNumber",
              "type": "string[]"
            },
            {
              "internalType": "string[]",
              "name": "_ownerPanCardNumber",
              "type": "string[]"
            },
            {
              "internalType": "uint256[]",
              "name": "_surveyNumber",
              "type": "uint256[]"
            },
            {
              "internalType": "uint256[]",
              "name": "_subSurveyNumber",
              "type": "uint256[]"
            },
            {
              "internalType": "string[]",
              "name": "_documentsId",
              "type": "string[]"
            },
            {
              "internalType": "string[]",
              "name": "_documentsName",
              "type": "string[]"
            },
            {
              "internalType": "string[]",
              "name": "_documentsHash",
              "type": "string[]"
            },
            {
              "internalType": "string[]",
              "name": "_documentsLink",
              "type": "string[]"
            }
          ],
          "internalType": "struct LandRegistry.splitPropertyInputs",
          "name": "inputParameters",
          "type": "tuple"
        }
      ],
      "name": "splitProperty",
      "outputs": [],
      "stateMutability": "nonpayable",
      "type": "function"
    },
    {
      "inputs": [
        {
          "internalType": "uint256",
          "name": "_propertyId",
          "type": "uint256"
        }
      ],
      "name": "getProperty",
      "outputs": [
        {
          "components": [
            {
              "internalType": "string",
              "name": "propertyHouseNumber",
              "type": "string"
            },
            {
              "internalType": "string",
              "name": "propertyStreetName",
              "type": "string"
            },
            {
              "internalType": "string",
              "name": "propertyType",
              "type": "string"
            },
            {
              "internalType": "uint256",
              "name": "propertyLength",
              "type": "uint256"
            },
            {
              "internalType": "uint256",
              "name": "propertyWidth",
              "type": "uint256"
            },
            {
              "internalType": "uint256",
              "name": "propertyPincode",
              "type": "uint256"
            },
            {
              "internalType": "string",
              "name": "propertyState",
              "type": "string"
            },
            {
              "internalType": "string",
              "name": "propertyVillage",
              "type": "string"
            },
            {
              "internalType": "string",
              "name": "propertyDistrict",
              "type": "string"
            },
            {
              "internalType": "string",
              "name": "propertyTaluka",
              "type": "string"
            },
            {
              "internalType": "string",
              "name": "ownerName",
              "type": "string"
            },
            {
              "internalType": "string",
              "name": "aadharCardNumber",
              "type": "string"
            },
            {
              "internalType": "string",
              "name": "panCardNumber",
              "type": "string"
            },
            {
              "internalType": "bool",
              "name": "transfered",
              "type": "bool"
            },
            {
              "internalType": "uint256",
              "name": "transferedTo",
              "type": "uint256"
            },
            {
              "internalType": "uint256[]",
              "name": "transferedFrom",
              "type": "uint256[]"
            },
            {
              "internalType": "uint256[]",
              "name": "propertySplitLandId",
              "type": "uint256[]"
            },
            {
              "internalType": "uint256",
              "name": "surveyNumber",
              "type": "uint256"
            },
            {
              "internalType": "uint256",
              "name": "subSurveyNumber",
              "type": "uint256"
            },
            {
              "internalType": "string",
              "name": "createdOn",
              "type": "string"
            },
            {
              "components": [
                {
                  "internalType": "string",
                  "name": "docId",
                  "type": "string"
                },
                {
                  "internalType": "string",
                  "name": "name",
                  "type": "string"
                },
                {
                  "internalType": "string",
                  "name": "link",
                  "type": "string"
                },
                {
                  "internalType": "string",
                  "name": "hash",
                  "type": "string"
                },
                {
                  "internalType": "bool",
                  "name": "verified",
                  "type": "bool"
                }
              ],
              "internalType": "struct LandRegistry.document[]",
              "name": "documents",
              "type": "tuple[]"
            }
          ],
          "internalType": "struct LandRegistry.outputvariables",
          "name": "",
          "type": "tuple"
        }
      ],
      "stateMutability": "view",
      "type": "function",
      "constant": true
    }
  ],
  "bytecode": "0x608060405234801561001057600080fd5b50613a2a806100206000396000f3fe608060405234801561001057600080fd5b50600436106100885760003560e01c8063a51f0b091161005b578063a51f0b0914610127578063b7e8cc7414610157578063c361a33514610173578063e5eb800a1461019157610088565b806332665ffb1461008d5780634b4124c7146100bd5780634ef1e124146100d9578063529881e114610109575b600080fd5b6100a760048036038101906100a291906122c0565b6101ad565b6040516100b491906127bf565b60405180910390f35b6100d760048036038101906100d29190612d51565b610d14565b005b6100f360048036038101906100ee91906122c0565b611283565b6040516101009190612da9565b60405180910390f35b6101116112a7565b60405161011e9190612da9565b60405180910390f35b610141600480360381019061013c919061333d565b6112b3565b60405161014e9190612da9565b60405180910390f35b610171600480360381019061016c919061333d565b6116f8565b005b61017b611b6c565b6040516101889190612da9565b60405180910390f35b6101ab60048036038101906101a69190613386565b611b72565b005b6101b5612139565b600060016000848152602001908152602001600020905060008160150180549050905060008167ffffffffffffffff8111156101f4576101f36127e6565b5b60405190808252806020026020018201604052801561022d57816020015b61021a6121db565b8152602001906001900390816102125790505b50905060005b828110156105a85760008460150182815481106102535761025261348d565b5b906000526020600020018054610268906134eb565b80601f0160208091040260200160405190810160405280929190818152602001828054610294906134eb565b80156102e15780601f106102b6576101008083540402835291602001916102e1565b820191906000526020600020905b8154815290600101906020018083116102c457829003601f168201915b5050505050905084601601816040516102fa9190613558565b90815260200160405180910390206040518060a0016040529081600082018054610323906134eb565b80601f016020809104026020016040519081016040528092919081815260200182805461034f906134eb565b801561039c5780601f106103715761010080835404028352916020019161039c565b820191906000526020600020905b81548152906001019060200180831161037f57829003601f168201915b505050505081526020016001820180546103b5906134eb565b80601f01602080910402602001604051908101604052809291908181526020018280546103e1906134eb565b801561042e5780601f106104035761010080835404028352916020019161042e565b820191906000526020600020905b81548152906001019060200180831161041157829003601f168201915b50505050508152602001600282018054610447906134eb565b80601f0160208091040260200160405190810160405280929190818152602001828054610473906134eb565b80156104c05780601f10610495576101008083540402835291602001916104c0565b820191906000526020600020905b8154815290600101906020018083116104a357829003601f168201915b505050505081526020016003820180546104d9906134eb565b80601f0160208091040260200160405190810160405280929190818152602001828054610505906134eb565b80156105525780601f1061052757610100808354040283529160200191610552565b820191906000526020600020905b81548152906001019060200180831161053557829003601f168201915b505050505081526020016004820160009054906101000a900460ff1615151515815250508383815181106105895761058861348d565b5b60200260200101819052505080806105a09061359e565b915050610233565b506000604051806102a001604052808560010180546105c6906134eb565b80601f01602080910402602001604051908101604052809291908181526020018280546105f2906134eb565b801561063f5780601f106106145761010080835404028352916020019161063f565b820191906000526020600020905b81548152906001019060200180831161062257829003601f168201915b50505050508152602001856002018054610658906134eb565b80601f0160208091040260200160405190810160405280929190818152602001828054610684906134eb565b80156106d15780601f106106a6576101008083540402835291602001916106d1565b820191906000526020600020905b8154815290600101906020018083116106b457829003601f168201915b505050505081526020018560030180546106ea906134eb565b80601f0160208091040260200160405190810160405280929190818152602001828054610716906134eb565b80156107635780601f1061073857610100808354040283529160200191610763565b820191906000526020600020905b81548152906001019060200180831161074657829003601f168201915b5050505050815260200185600401548152602001856005015481526020018560060154815260200185600701805461079a906134eb565b80601f01602080910402602001604051908101604052809291908181526020018280546107c6906134eb565b80156108135780601f106107e857610100808354040283529160200191610813565b820191906000526020600020905b8154815290600101906020018083116107f657829003601f168201915b5050505050815260200185600801805461082c906134eb565b80601f0160208091040260200160405190810160405280929190818152602001828054610858906134eb565b80156108a55780601f1061087a576101008083540402835291602001916108a5565b820191906000526020600020905b81548152906001019060200180831161088857829003601f168201915b505050505081526020018560090180546108be906134eb565b80601f01602080910402602001604051908101604052809291908181526020018280546108ea906134eb565b80156109375780601f1061090c57610100808354040283529160200191610937565b820191906000526020600020905b81548152906001019060200180831161091a57829003601f168201915b5050505050815260200185600a018054610950906134eb565b80601f016020809104026020016040519081016040528092919081815260200182805461097c906134eb565b80156109c95780601f1061099e576101008083540402835291602001916109c9565b820191906000526020600020905b8154815290600101906020018083116109ac57829003601f168201915b5050505050815260200185600b0180546109e2906134eb565b80601f0160208091040260200160405190810160405280929190818152602001828054610a0e906134eb565b8015610a5b5780601f10610a3057610100808354040283529160200191610a5b565b820191906000526020600020905b815481529060010190602001808311610a3e57829003601f168201915b5050505050815260200185600c018054610a74906134eb565b80601f0160208091040260200160405190810160405280929190818152602001828054610aa0906134eb565b8015610aed5780601f10610ac257610100808354040283529160200191610aed565b820191906000526020600020905b815481529060010190602001808311610ad057829003601f168201915b5050505050815260200185600d018054610b06906134eb565b80601f0160208091040260200160405190810160405280929190818152602001828054610b32906134eb565b8015610b7f5780601f10610b5457610100808354040283529160200191610b7f565b820191906000526020600020905b815481529060010190602001808311610b6257829003601f168201915b5050505050815260200185600e0160009054906101000a900460ff161515815260200185600f0154815260200185601001805480602002602001604051908101604052809291908181526020018280548015610bfa57602002820191906000526020600020905b815481526020019060010190808311610be6575b5050505050815260200185601101805480602002602001604051908101604052809291908181526020018280548015610c5257602002820191906000526020600020905b815481526020019060010190808311610c3e575b505050505081526020018560120154815260200185601301548152602001856014018054610c7f906134eb565b80601f0160208091040260200160405190810160405280929190818152602001828054610cab906134eb565b8015610cf85780601f10610ccd57610100808354040283529160200191610cf8565b820191906000526020600020905b815481529060010190602001808311610cdb57829003601f168201915b5050505050815260200183815250905080945050505050919050565b600060016000836000015181526020019081526020016000209050600181600e0160006101000a81548160ff02191690831515021790555060005b82606001515181101561127e57600060016000600260008154610d719061359e565b9190508190558152602001908152602001600020905082600101816001019081610d9b91906137bd565b5082600201816002019081610db091906137bd565b5082600301816003019081610dc591906137bd565b5082600401548160040181905550826005015481600501819055508260060154816006018190555082600701816007019081610e0191906137bd565b5082600801816008019081610e1691906137bd565b5082600901816009019081610e2b91906137bd565b5082600a0181600a019081610e4091906137bd565b5082600e0160009054906101000a900460ff1681600e0160006101000a81548160ff02191690831515021790555082600f015481600f01819055508060100184600001519080600181540180825580915050600190039060005260206000200160009091909190915055600254816000018190555083606001518281518110610ecc57610ecb61348d565b5b6020026020010151816004018190555083608001518281518110610ef357610ef261348d565b5b6020026020010151816005018190555083604001518281518110610f1a57610f1961348d565b5b602002602001015181600b019081610f3291906138a5565b508360a001518281518110610f4a57610f4961348d565b5b602002602001015181600c019081610f6291906138a5565b508360c001518281518110610f7a57610f7961348d565b5b602002602001015181600d019081610f9291906138a5565b508360e001518281518110610faa57610fa961348d565b5b602002602001015181601201819055508361010001518281518110610fd257610fd161348d565b5b602002602001015181601301819055508360200151816014019081610ff791906138a5565b5060005b846101400151518110156111d85760006040518060a00160405280876101200151848151811061102e5761102d61348d565b5b6020026020010151815260200187610140015184815181106110535761105261348d565b5b6020026020010151815260200187610180015184815181106110785761107761348d565b5b60200260200101518152602001876101600151848151811061109d5761109c61348d565b5b602002602001015181526020016001151581525090508260150186610140015183815181106110cf576110ce61348d565b5b602002602001015190806001815401808255809150506001900390600052602060002001600090919091909150908161110891906138a5565b50808360160187610140015184815181106111265761112561348d565b5b602002602001015160405161113b9190613558565b9081526020016040518091039020600082015181600001908161115e91906138a5565b50602082015181600101908161117491906138a5565b50604082015181600201908161118a91906138a5565b5060608201518160030190816111a091906138a5565b5060808201518160040160006101000a81548160ff0219169083151502179055509050505080806111d09061359e565b915050610ffb565b50600060025490806001815401808255809150506001900390600052602060002001600090919091909150557fdaa872b103b86ce76d41c940c2d5709bec5fae546826ea8d60917d67234498986002546040516112359190612da9565b60405180910390a18260110160025490806001815401808255809150506001900390600052602060002001600090919091909150555080806112769061359e565b915050610d4f565b505050565b6000818154811061129357600080fd5b906000526020600020016000915090505481565b60008080549050905090565b600080600160006002600081546112c99061359e565b91905081905581526020019081526020016000209050600254816000018190555082600001518160010190816112ff91906138a5565b50826020015181600201908161131591906138a5565b50826040015181600301908161132b91906138a5565b5082606001518160040181905550826080015181600501819055508260a0015181600601819055508260c0015181600701908161136891906138a5565b508260e0015181600801908161137e91906138a5565b5082610100015181600901908161139591906138a5565b5082610120015181600a0190816113ac91906138a5565b5082610140015181600b0190816113c391906138a5565b5082610160015181600c0190816113da91906138a5565b5082610180015181600d0190816113f191906138a5565b50826101a0015181600e0160006101000a81548160ff021916908315150217905550826101c0015181600f0181905550826101e0015181601001908051906020019061143e92919061220c565b5082610200015181601101908051906020019061145c92919061220c565b508261022001518160120181905550826102400151816013018190555082610260015181601401908161148f91906138a5565b5060005b836102800151518110156116885760006040518060a0016040528086610280015184815181106114c6576114c561348d565b5b602002602001015160000151815260200186610280015184815181106114ef576114ee61348d565b5b602002602001015160200151815260200186610280015184815181106115185761151761348d565b5b602002602001015160400151815260200186610280015184815181106115415761154061348d565b5b60200260200101516060015181526020016001151581525090508260150185610280015183815181106115775761157661348d565b5b6020026020010151602001519080600181540180825580915050600190039060005260206000200160009091909190915090816115b491906138a5565b50808360160186610280015184815181106115d2576115d161348d565b5b6020026020010151602001516040516115eb9190613558565b9081526020016040518091039020600082015181600001908161160e91906138a5565b50602082015181600101908161162491906138a5565b50604082015181600201908161163a91906138a5565b50606082015181600301908161165091906138a5565b5060808201518160040160006101000a81548160ff0219169083151502179055509050505080806116809061359e565b915050611493565b50600060025490806001815401808255809150506001900390600052602060002001600090919091909150557fdaa872b103b86ce76d41c940c2d5709bec5fae546826ea8d60917d67234498986002546040516116e59190612da9565b60405180910390a1600254915050919050565b60006001600060026000815461170d9061359e565b919050819055815260200190815260200160002090506002548160000181905550816000015181600101908161174391906138a5565b50816020015181600201908161175991906138a5565b50816040015181600301908161176f91906138a5565b5081606001518160040181905550816080015181600501819055508160a0015181600601819055508160c001518160070190816117ac91906138a5565b508160e001518160080190816117c291906138a5565b508161010001518160090190816117d991906138a5565b5081610120015181600a0190816117f091906138a5565b5081610140015181600b01908161180791906138a5565b5081610160015181600c01908161181e91906138a5565b5081610180015181600d01908161183591906138a5565b508161022001518160120181905550816102400151816013018190555081610260015181601401908161186891906138a5565b50816101e0015181601001908051906020019061188692919061220c565b5060005b82610280015151811015611a7f5760006040518060a0016040528085610280015184815181106118bd576118bc61348d565b5b602002602001015160000151815260200185610280015184815181106118e6576118e561348d565b5b6020026020010151602001518152602001856102800151848151811061190f5761190e61348d565b5b602002602001015160400151815260200185610280015184815181106119385761193761348d565b5b602002602001015160600151815260200160011515815250905082601501846102800151838151811061196e5761196d61348d565b5b6020026020010151602001519080600181540180825580915050600190039060005260206000200160009091909190915090816119ab91906138a5565b50808360160185610280015184815181106119c9576119c861348d565b5b6020026020010151602001516040516119e29190613558565b90815260200160405180910390206000820151816000019081611a0591906138a5565b506020820151816001019081611a1b91906138a5565b506040820151816002019081611a3191906138a5565b506060820151816003019081611a4791906138a5565b5060808201518160040160006101000a81548160ff021916908315150217905550905050508080611a779061359e565b91505061188a565b506000600254908060018154018082558091505060019003906000526020600020016000909190919091505560005b826101e0015151811015611b2e57600060016000856101e001518481518110611ada57611ad961348d565b5b602002602001015181526020019081526020016000209050600181600e0160006101000a81548160ff02191690831515021790555060025481600f0181905550508080611b269061359e565b915050611aae565b507fdaa872b103b86ce76d41c940c2d5709bec5fae546826ea8d60917d6723449898600254604051611b609190612da9565b60405180910390a15050565b60025481565b60006001600087600081518110611b8c57611b8b61348d565b5b602002602001015181526020019081526020016000209050600081600b018054611bb5906134eb565b905003611bf7576040517f08c379a0000000000000000000000000000000000000000000000000000000008152600401611bee906139d4565b60405180910390fd5b60606000604051806102a00160405280846001018054611c16906134eb565b80601f0160208091040260200160405190810160405280929190818152602001828054611c42906134eb565b8015611c8f5780601f10611c6457610100808354040283529160200191611c8f565b820191906000526020600020905b815481529060010190602001808311611c7257829003601f168201915b50505050508152602001846002018054611ca8906134eb565b80601f0160208091040260200160405190810160405280929190818152602001828054611cd4906134eb565b8015611d215780601f10611cf657610100808354040283529160200191611d21565b820191906000526020600020905b815481529060010190602001808311611d0457829003601f168201915b50505050508152602001846003018054611d3a906134eb565b80601f0160208091040260200160405190810160405280929190818152602001828054611d66906134eb565b8015611db35780601f10611d8857610100808354040283529160200191611db3565b820191906000526020600020905b815481529060010190602001808311611d9657829003601f168201915b50505050508152602001846004015481526020018460050154815260200184600601548152602001846007018054611dea906134eb565b80601f0160208091040260200160405190810160405280929190818152602001828054611e16906134eb565b8015611e635780601f10611e3857610100808354040283529160200191611e63565b820191906000526020600020905b815481529060010190602001808311611e4657829003601f168201915b50505050508152602001846008018054611e7c906134eb565b80601f0160208091040260200160405190810160405280929190818152602001828054611ea8906134eb565b8015611ef55780601f10611eca57610100808354040283529160200191611ef5565b820191906000526020600020905b815481529060010190602001808311611ed857829003601f168201915b50505050508152602001846009018054611f0e906134eb565b80601f0160208091040260200160405190810160405280929190818152602001828054611f3a906134eb565b8015611f875780601f10611f5c57610100808354040283529160200191611f87565b820191906000526020600020905b815481529060010190602001808311611f6a57829003601f168201915b5050505050815260200184600a018054611fa0906134eb565b80601f0160208091040260200160405190810160405280929190818152602001828054611fcc906134eb565b80156120195780601f10611fee57610100808354040283529160200191612019565b820191906000526020600020905b815481529060010190602001808311611ffc57829003601f168201915b50505050508152602001888152602001878152602001868152602001600015158152602001600081526020018981526020018381526020018460120154815260200184601301548152602001846014018054612074906134eb565b80601f01602080910402602001604051908101604052809291908181526020018280546120a0906134eb565b80156120ed5780601f106120c2576101008083540402835291602001916120ed565b820191906000526020600020905b8154815290600101906020018083116120d057829003601f168201915b50505050508152602001858152509050612106816112b3565b50600183600e0160006101000a81548160ff02191690831515021790555060025483600f01819055505050505050505050565b604051806102a0016040528060608152602001606081526020016060815260200160008152602001600081526020016000815260200160608152602001606081526020016060815260200160608152602001606081526020016060815260200160608152602001600015158152602001600081526020016060815260200160608152602001600081526020016000815260200160608152602001606081525090565b6040518060a00160405280606081526020016060815260200160608152602001606081526020016000151581525090565b828054828255906000526020600020908101928215612248579160200282015b8281111561224757825182559160200191906001019061222c565b5b5090506122559190612259565b5090565b5b8082111561227257600081600090555060010161225a565b5090565b6000604051905090565b600080fd5b600080fd5b6000819050919050565b61229d8161228a565b81146122a857600080fd5b50565b6000813590506122ba81612294565b92915050565b6000602082840312156122d6576122d5612280565b5b60006122e4848285016122ab565b91505092915050565b600081519050919050565b600082825260208201905092915050565b60005b8381101561232757808201518184015260208101905061230c565b60008484015250505050565b6000601f19601f8301169050919050565b600061234f826122ed565b61235981856122f8565b9350612369818560208601612309565b61237281612333565b840191505092915050565b6123868161228a565b82525050565b60008115159050919050565b6123a18161238c565b82525050565b600081519050919050565b600082825260208201905092915050565b6000819050602082019050919050565b60006123df838361237d565b60208301905092915050565b6000602082019050919050565b6000612403826123a7565b61240d81856123b2565b9350612418836123c3565b8060005b8381101561244957815161243088826123d3565b975061243b836123eb565b92505060018101905061241c565b5085935050505092915050565b600081519050919050565b600082825260208201905092915050565b6000819050602082019050919050565b600060a083016000830151848203600086015261249f8282612344565b915050602083015184820360208601526124b98282612344565b915050604083015184820360408601526124d38282612344565b915050606083015184820360608601526124ed8282612344565b91505060808301516125026080860182612398565b508091505092915050565b60006125198383612482565b905092915050565b6000602082019050919050565b600061253982612456565b6125438185612461565b93508360208202850161255585612472565b8060005b858110156125915784840389528151612572858261250d565b945061257d83612521565b925060208a01995050600181019050612559565b50829750879550505050505092915050565b60006102a08301600083015184820360008601526125c18282612344565b915050602083015184820360208601526125db8282612344565b915050604083015184820360408601526125f58282612344565b915050606083015161260a606086018261237d565b50608083015161261d608086018261237d565b5060a083015161263060a086018261237d565b5060c083015184820360c08601526126488282612344565b91505060e083015184820360e08601526126628282612344565b91505061010083015184820361010086015261267e8282612344565b91505061012083015184820361012086015261269a8282612344565b9150506101408301518482036101408601526126b68282612344565b9150506101608301518482036101608601526126d28282612344565b9150506101808301518482036101808601526126ee8282612344565b9150506101a08301516127056101a0860182612398565b506101c083015161271a6101c086018261237d565b506101e08301518482036101e086015261273482826123f8565b91505061020083015184820361020086015261275082826123f8565b91505061022083015161276761022086018261237d565b5061024083015161277c61024086018261237d565b506102608301518482036102608601526127968282612344565b9150506102808301518482036102808601526127b2828261252e565b9150508091505092915050565b600060208201905081810360008301526127d981846125a3565b905092915050565b600080fd5b7f4e487b7100000000000000000000000000000000000000000000000000000000600052604160045260246000fd5b61281e82612333565b810181811067ffffffffffffffff8211171561283d5761283c6127e6565b5b80604052505050565b6000612850612276565b905061285c8282612815565b919050565b600080fd5b600080fd5b600080fd5b600067ffffffffffffffff82111561288b5761288a6127e6565b5b61289482612333565b9050602081019050919050565b82818337600083830152505050565b60006128c36128be84612870565b612846565b9050828152602081018484840111156128df576128de61286b565b5b6128ea8482856128a1565b509392505050565b600082601f83011261290757612906612866565b5b81356129178482602086016128b0565b91505092915050565b600067ffffffffffffffff82111561293b5761293a6127e6565b5b602082029050602081019050919050565b600080fd5b600061296461295f84612920565b612846565b905080838252602082019050602084028301858111156129875761298661294c565b5b835b818110156129ce57803567ffffffffffffffff8111156129ac576129ab612866565b5b8086016129b989826128f2565b85526020850194505050602081019050612989565b5050509392505050565b600082601f8301126129ed576129ec612866565b5b81356129fd848260208601612951565b91505092915050565b600067ffffffffffffffff821115612a2157612a206127e6565b5b602082029050602081019050919050565b6000612a45612a4084612a06565b612846565b90508083825260208201905060208402830185811115612a6857612a6761294c565b5b835b81811015612a915780612a7d88826122ab565b845260208401935050602081019050612a6a565b5050509392505050565b600082601f830112612ab057612aaf612866565b5b8135612ac0848260208601612a32565b91505092915050565b60006101a08284031215612ae057612adf6127e1565b5b612aeb6101a0612846565b90506000612afb848285016122ab565b600083015250602082013567ffffffffffffffff811115612b1f57612b1e612861565b5b612b2b848285016128f2565b602083015250604082013567ffffffffffffffff811115612b4f57612b4e612861565b5b612b5b848285016129d8565b604083015250606082013567ffffffffffffffff811115612b7f57612b7e612861565b5b612b8b84828501612a9b565b606083015250608082013567ffffffffffffffff811115612baf57612bae612861565b5b612bbb84828501612a9b565b60808301525060a082013567ffffffffffffffff811115612bdf57612bde612861565b5b612beb848285016129d8565b60a08301525060c082013567ffffffffffffffff811115612c0f57612c0e612861565b5b612c1b848285016129d8565b60c08301525060e082013567ffffffffffffffff811115612c3f57612c3e612861565b5b612c4b84828501612a9b565b60e08301525061010082013567ffffffffffffffff811115612c7057612c6f612861565b5b612c7c84828501612a9b565b6101008301525061012082013567ffffffffffffffff811115612ca257612ca1612861565b5b612cae848285016129d8565b6101208301525061014082013567ffffffffffffffff811115612cd457612cd3612861565b5b612ce0848285016129d8565b6101408301525061016082013567ffffffffffffffff811115612d0657612d05612861565b5b612d12848285016129d8565b6101608301525061018082013567ffffffffffffffff811115612d3857612d37612861565b5b612d44848285016129d8565b6101808301525092915050565b600060208284031215612d6757612d66612280565b5b600082013567ffffffffffffffff811115612d8557612d84612285565b5b612d9184828501612ac9565b91505092915050565b612da38161228a565b82525050565b6000602082019050612dbe6000830184612d9a565b92915050565b612dcd8161238c565b8114612dd857600080fd5b50565b600081359050612dea81612dc4565b92915050565b600067ffffffffffffffff821115612e0b57612e0a6127e6565b5b602082029050602081019050919050565b600060a08284031215612e3257612e316127e1565b5b612e3c60a0612846565b9050600082013567ffffffffffffffff811115612e5c57612e5b612861565b5b612e68848285016128f2565b600083015250602082013567ffffffffffffffff811115612e8c57612e8b612861565b5b612e98848285016128f2565b602083015250604082013567ffffffffffffffff811115612ebc57612ebb612861565b5b612ec8848285016128f2565b604083015250606082013567ffffffffffffffff811115612eec57612eeb612861565b5b612ef8848285016128f2565b6060830152506080612f0c84828501612ddb565b60808301525092915050565b6000612f2b612f2684612df0565b612846565b90508083825260208201905060208402830185811115612f4e57612f4d61294c565b5b835b81811015612f9557803567ffffffffffffffff811115612f7357612f72612866565b5b808601612f808982612e1c565b85526020850194505050602081019050612f50565b5050509392505050565b600082601f830112612fb457612fb3612866565b5b8135612fc4848260208601612f18565b91505092915050565b60006102a08284031215612fe457612fe36127e1565b5b612fef6102a0612846565b9050600082013567ffffffffffffffff81111561300f5761300e612861565b5b61301b848285016128f2565b600083015250602082013567ffffffffffffffff81111561303f5761303e612861565b5b61304b848285016128f2565b602083015250604082013567ffffffffffffffff81111561306f5761306e612861565b5b61307b848285016128f2565b604083015250606061308f848285016122ab565b60608301525060806130a3848285016122ab565b60808301525060a06130b7848285016122ab565b60a08301525060c082013567ffffffffffffffff8111156130db576130da612861565b5b6130e7848285016128f2565b60c08301525060e082013567ffffffffffffffff81111561310b5761310a612861565b5b613117848285016128f2565b60e08301525061010082013567ffffffffffffffff81111561313c5761313b612861565b5b613148848285016128f2565b6101008301525061012082013567ffffffffffffffff81111561316e5761316d612861565b5b61317a848285016128f2565b6101208301525061014082013567ffffffffffffffff8111156131a05761319f612861565b5b6131ac848285016128f2565b6101408301525061016082013567ffffffffffffffff8111156131d2576131d1612861565b5b6131de848285016128f2565b6101608301525061018082013567ffffffffffffffff81111561320457613203612861565b5b613210848285016128f2565b610180830152506101a061322684828501612ddb565b6101a0830152506101c061323c848285016122ab565b6101c0830152506101e082013567ffffffffffffffff81111561326257613261612861565b5b61326e84828501612a9b565b6101e08301525061020082013567ffffffffffffffff81111561329457613293612861565b5b6132a084828501612a9b565b610200830152506102206132b6848285016122ab565b610220830152506102406132cc848285016122ab565b6102408301525061026082013567ffffffffffffffff8111156132f2576132f1612861565b5b6132fe848285016128f2565b6102608301525061028082013567ffffffffffffffff81111561332457613323612861565b5b61333084828501612f9f565b6102808301525092915050565b60006020828403121561335357613352612280565b5b600082013567ffffffffffffffff81111561337157613370612285565b5b61337d84828501612fcd565b91505092915050565b600080600080600060a086880312156133a2576133a1612280565b5b600086013567ffffffffffffffff8111156133c0576133bf612285565b5b6133cc88828901612a9b565b955050602086013567ffffffffffffffff8111156133ed576133ec612285565b5b6133f9888289016128f2565b945050604086013567ffffffffffffffff81111561341a57613419612285565b5b613426888289016128f2565b935050606086013567ffffffffffffffff81111561344757613446612285565b5b613453888289016128f2565b925050608086013567ffffffffffffffff81111561347457613473612285565b5b61348088828901612f9f565b9150509295509295909350565b7f4e487b7100000000000000000000000000000000000000000000000000000000600052603260045260246000fd5b7f4e487b7100000000000000000000000000000000000000000000000000000000600052602260045260246000fd5b6000600282049050600182168061350357607f821691505b602082108103613516576135156134bc565b5b50919050565b600081905092915050565b6000613532826122ed565b61353c818561351c565b935061354c818560208601612309565b80840191505092915050565b60006135648284613527565b915081905092915050565b7f4e487b7100000000000000000000000000000000000000000000000000000000600052601160045260246000fd5b60006135a98261228a565b91507fffffffffffffffffffffffffffffffffffffffffffffffffffffffffffffffff82036135db576135da61356f565b5b600182019050919050565b6000815490506135f5816134eb565b9050919050565b60008190508160005260206000209050919050565b60008190508160005260206000209050919050565b60006020601f8301049050919050565b600082821b905092915050565b6000600883026136737fffffffffffffffffffffffffffffffffffffffffffffffffffffffffffffffff82613636565b61367d8683613636565b95508019841693508086168417925050509392505050565b6000819050919050565b60006136ba6136b56136b08461228a565b613695565b61228a565b9050919050565b6000819050919050565b6136d48361369f565b6136e86136e0826136c1565b848454613643565b825550505050565b600090565b6136fd6136f0565b6137088184846136cb565b505050565b5b8181101561372c576137216000826136f5565b60018101905061370e565b5050565b601f82111561377157613742816135fc565b61374b84613626565b8101602085101561375a578190505b61376e61376685613626565b83018261370d565b50505b505050565b600082821c905092915050565b600061379460001984600802613776565b1980831691505092915050565b60006137ad8383613783565b9150826002028217905092915050565b8181036137cb5750506138a3565b6137d4826135e6565b67ffffffffffffffff8111156137ed576137ec6127e6565b5b6137f782546134eb565b613802828285613730565b6000601f831160018114613831576000841561381f578287015490505b61382985826137a1565b86555061389c565b601f19841661383f87613611565b965061384a866135fc565b60005b828110156138725784890154825560018201915060018501945060208101905061384d565b8683101561388f578489015461388b601f891682613783565b8355505b6001600288020188555050505b5050505050505b565b6138ae826122ed565b67ffffffffffffffff8111156138c7576138c66127e6565b5b6138d182546134eb565b6138dc828285613730565b600060209050601f83116001811461390f57600084156138fd578287015190505b61390785826137a1565b86555061396f565b601f19841661391d866135fc565b60005b8281101561394557848901518255600182019150602085019450602081019050613920565b86831015613962578489015161395e601f891682613783565b8355505b6001600288020188555050505b505050505050565b600082825260208201905092915050565b7f50726f706572747920646f6573206e6f74206578697374000000000000000000600082015250565b60006139be601783613977565b91506139c982613988565b602082019050919050565b600060208201905081810360008301526139ed816139b1565b905091905056fea26469706673582212208fc97b052560d75349026e1d4d85c9e9d80707fb495de53dd5db58351700111a64736f6c63430008110033",
  "immutableReferences": {},
  "source": "// SPDX-License-Identifier: MIT\r\npragma solidity ^0.8.0;\r\n\r\ncontract LandRegistry {\r\n    // all land id stored\r\n    uint256[] public registerdLands;\r\n\r\n    event sendPropertyId(uint256 _id);\r\n\r\n    function getRegisteredLandCount() public view returns (uint256) {\r\n        return registerdLands.length;\r\n    }\r\n\r\n    struct document {\r\n        string docId;\r\n        string name;\r\n        string link;\r\n        string hash;\r\n        bool verified;\r\n    }\r\n\r\n    struct User {\r\n        string firstName;\r\n        string lastName;\r\n        string aadharCardNumber;\r\n        string panCardNumber;\r\n        string[] addressProofs;\r\n    }\r\n\r\n    struct Property {\r\n        // property details\r\n        uint256 propertyId;\r\n        string propertyHouseNumber;\r\n        string propertyStreetName;\r\n        string propertyType;\r\n        uint256 propertyLength;\r\n        uint256 propertyWidth;\r\n        uint256 propertyPincode;\r\n        string propertyState;\r\n        string propertyVillage;\r\n        string propertyDistrict;\r\n        string propertyTaluka;\r\n        // owner details\r\n        string ownerName;\r\n        string aadharCardNumber;\r\n        string panCardNumber;\r\n        // transfer details (if any)\r\n        bool transfered;\r\n        uint256 transferedTo;\r\n        uint256[] transferedFrom;\r\n        uint256[] propertySplitLandId;\r\n        // ownership details\r\n        uint256 surveyNumber;\r\n        uint256 subSurveyNumber;\r\n        string createdOn;\r\n        // documents\r\n        string[] documentNames;\r\n        mapping(string => document) documents;\r\n    }\r\n\r\n    // use previous Property struct to create new property\r\n    struct inputvariables {\r\n        // property details\r\n        string propertyHouseNumber;\r\n        string propertyStreetName;\r\n        string propertyType;\r\n        uint256 propertyLength;\r\n        uint256 propertyWidth;\r\n        uint256 propertyPincode;\r\n        string propertyState;\r\n        string propertyVillage;\r\n        string propertyDistrict;\r\n        string propertyTaluka;\r\n        // owner details\r\n        string ownerName;\r\n        string aadharCardNumber;\r\n        string panCardNumber;\r\n        // transfer details (if any)\r\n        bool transfered;\r\n        uint256 transferedTo;\r\n        uint256[] transferedFrom;\r\n        uint256[] propertySplitLandId;\r\n        // ownership details\r\n        uint256 surveyNumber;\r\n        uint256 subSurveyNumber;\r\n        string createdOn;\r\n        // documents\r\n        document[] documents;\r\n    }\r\n\r\n    struct outputvariables {\r\n        // uint256 propertyId;\r\n        // property details\r\n        string propertyHouseNumber;\r\n        string propertyStreetName;\r\n        string propertyType;\r\n        uint256 propertyLength;\r\n        uint256 propertyWidth;\r\n        uint256 propertyPincode;\r\n        string propertyState;\r\n        string propertyVillage;\r\n        string propertyDistrict;\r\n        string propertyTaluka;\r\n        // owner details\r\n        string ownerName;\r\n        string aadharCardNumber;\r\n        string panCardNumber;\r\n        // transfer details (if any)\r\n        bool transfered;\r\n        uint256 transferedTo;\r\n        uint256[] transferedFrom;\r\n        uint256[] propertySplitLandId;\r\n        // ownership details\r\n        uint256 surveyNumber;\r\n        uint256 subSurveyNumber;\r\n        string createdOn;\r\n        // documents\r\n        document[] documents;\r\n        // string[] docName;\r\n        // string[] docLink;\r\n        // string[] dochash;\r\n        // bool[] docVerified;\r\n    }\r\n\r\n    // we are not using public below as solidity doesnt allow netested fetching by default\r\n    mapping(uint256 => Property) properties;\r\n    uint256 public propertyCount;\r\n\r\n    // event PropertyMerged(uint256 id1, uint256 id2, uint256 mergedId);\r\n    // event PropertySplit(uint256 id, uint256 area1, uint256 area2, uint256 splitId1, uint256 splitId2);\r\n\r\n    function registerNewProperty(\r\n        // fill all the details of the property\r\n        inputvariables memory variable\r\n    ) public returns (uint256) {\r\n        Property storage tempProperty = properties[++propertyCount];\r\n        tempProperty.propertyId = propertyCount;\r\n\r\n        // property details\r\n        tempProperty.propertyHouseNumber = variable.propertyHouseNumber;\r\n        tempProperty.propertyStreetName = variable.propertyStreetName;\r\n        tempProperty.propertyType = variable.propertyType;\r\n        tempProperty.propertyLength = variable.propertyLength;\r\n        tempProperty.propertyWidth = variable.propertyWidth;\r\n        tempProperty.propertyPincode = variable.propertyPincode;\r\n        tempProperty.propertyState = variable.propertyState;\r\n        tempProperty.propertyVillage = variable.propertyVillage;\r\n        tempProperty.propertyDistrict = variable.propertyDistrict;\r\n        tempProperty.propertyTaluka = variable.propertyTaluka;\r\n\r\n        // owner details\r\n        tempProperty.ownerName = variable.ownerName;\r\n        tempProperty.aadharCardNumber = variable.aadharCardNumber;\r\n        tempProperty.panCardNumber = variable.panCardNumber;\r\n\r\n        // transfer details (if any)\r\n        tempProperty.transfered = variable.transfered;\r\n        tempProperty.transferedTo = variable.transferedTo;\r\n        tempProperty.transferedFrom = variable.transferedFrom;\r\n        tempProperty.propertySplitLandId = variable.propertySplitLandId;\r\n\r\n        // ownership details\r\n        tempProperty.surveyNumber = variable.surveyNumber;\r\n        tempProperty.subSurveyNumber = variable.subSurveyNumber;\r\n        tempProperty.createdOn = variable.createdOn;\r\n\r\n        for (uint256 i = 0; i < variable.documents.length; i++) {\r\n            document memory newDocument = document(\r\n                variable.documents[i].docId,\r\n                variable.documents[i].name,\r\n                variable.documents[i].link,\r\n                variable.documents[i].hash,\r\n                true\r\n            );\r\n            tempProperty.documentNames.push(variable.documents[i].name);\r\n            tempProperty.documents[variable.documents[i].name] = newDocument;\r\n        }\r\n\r\n        registerdLands.push(propertyCount);\r\n        emit sendPropertyId(propertyCount);\r\n        return propertyCount;\r\n    }\r\n\r\n    function transferOwnership(\r\n        // the input is taken as array because other methods give out error\r\n        uint256[] memory _propertyId,\r\n        string memory _newOwnerName,\r\n        string memory _newOwnerAadhaarCardNumber,\r\n        string memory _newOwnerPanCardNumber,\r\n        // documents\r\n        document[] memory documents\r\n    ) public {\r\n        Property storage property = properties[_propertyId[0]];\r\n        require(\r\n            bytes(property.ownerName).length != 0,\r\n            \"Property does not exist\"\r\n        );\r\n        // property.ownerName = _newOwnerName;\r\n        // property.aadharCardNumber = _newOwnerAadhaarCardNumber;\r\n        // property.panCardNumber = _newOwnerPanCardNumber;\r\n        // property.addressProofA = _newOwnerAddressProofA;\r\n        // property.addressProofB = _newOwnerAddressProofB;\r\n\r\n        uint256[] memory splitLandID;\r\n        // setting struct values\r\n        inputvariables memory newProperty = inputvariables(\r\n            property.propertyHouseNumber,\r\n            property.propertyStreetName,\r\n            property.propertyType,\r\n            property.propertyLength,\r\n            property.propertyWidth,\r\n            property.propertyPincode,\r\n            property.propertyState,\r\n            property.propertyVillage,\r\n            property.propertyDistrict,\r\n            property.propertyTaluka,\r\n            _newOwnerName,\r\n            _newOwnerAadhaarCardNumber,\r\n            _newOwnerPanCardNumber,\r\n            false,\r\n            0,\r\n            // below is transferred from\r\n            _propertyId,\r\n            splitLandID,\r\n            property.surveyNumber,\r\n            property.subSurveyNumber,\r\n            property.createdOn,\r\n            documents\r\n        );\r\n        // for (uint256 i = 0; i < documents.length; i++) {\r\n        //     document memory newDocument = document(\r\n        //         documents[i].name,\r\n        //         documents[i].link,\r\n        //         documents[i].hash,\r\n        //         true\r\n        //     );\r\n        //     newProperty.documentNames.push(documents[i].name);\r\n        //     newProperty.documents[documents[i].name] = newDocument;\r\n        // }\r\n        // calling registerNewProperty Function to create new successor\r\n        registerNewProperty(newProperty);\r\n\r\n        property.transfered = true;\r\n        property.transferedTo = propertyCount;\r\n    }\r\n\r\n    function mergeProperties(inputvariables memory variable) public {\r\n        // creating new merged property\r\n        Property storage property = properties[++propertyCount];\r\n\r\n        property.propertyId = propertyCount;\r\n        property.propertyHouseNumber = variable.propertyHouseNumber;\r\n        property.propertyStreetName = variable.propertyStreetName;\r\n        property.propertyType = variable.propertyType;\r\n        property.propertyLength = variable.propertyLength;\r\n        property.propertyWidth = variable.propertyWidth;\r\n        property.propertyPincode = variable.propertyPincode;\r\n        property.propertyState = variable.propertyState;\r\n        property.propertyVillage = variable.propertyVillage;\r\n        property.propertyDistrict = variable.propertyDistrict;\r\n        property.propertyTaluka = variable.propertyTaluka;\r\n\r\n        // owner details\r\n        property.ownerName = variable.ownerName;\r\n        property.aadharCardNumber = variable.aadharCardNumber;\r\n        property.panCardNumber = variable.panCardNumber;\r\n\r\n        // ownership details\r\n        property.surveyNumber = variable.surveyNumber;\r\n        property.subSurveyNumber = variable.subSurveyNumber;\r\n        property.createdOn = variable.createdOn;\r\n\r\n        property.transferedFrom = variable.transferedFrom;\r\n\r\n        for (uint256 i = 0; i < variable.documents.length; i++) {\r\n            document memory newDocument = document(\r\n                variable.documents[i].docId,\r\n                variable.documents[i].name,\r\n                variable.documents[i].link,\r\n                variable.documents[i].hash,\r\n                true\r\n            );\r\n            property.documentNames.push(variable.documents[i].name);\r\n            property.documents[variable.documents[i].name] = newDocument;\r\n        }\r\n\r\n        // registering new mapping of land\r\n        registerdLands.push(propertyCount);\r\n\r\n        // setting transfered status to all the merged properties\r\n        for (uint256 i = 0; i < variable.transferedFrom.length; i++) {\r\n            Property storage tempProperty = properties[\r\n                variable.transferedFrom[i]\r\n            ];\r\n            // setting successor\r\n            tempProperty.transfered = true;\r\n            tempProperty.transferedTo = propertyCount;\r\n        }\r\n\r\n        emit sendPropertyId(propertyCount);\r\n    }\r\n\r\n    struct splitPropertyInputs {\r\n        uint256 _propertyId;\r\n        string _createdOn;\r\n        string[] _ownerName;\r\n        uint256[] _propertyLength;\r\n        uint256[] _propertyWidth;\r\n        string[] _ownerAadhaarCardNumber;\r\n        string[] _ownerPanCardNumber;\r\n        uint256[] _surveyNumber;\r\n        uint256[] _subSurveyNumber;\r\n        // documents\r\n        string[] _documentsId;\r\n        string[] _documentsName;\r\n        string[] _documentsHash;\r\n        string[] _documentsLink;\r\n    }\r\n\r\n    // parameter example:- (1,\"234234\",[\"harsh\",\"krishna\"],[\"123\",\"123\"],[\"addr\",\"addr\"],[45,76],[\"456\",\"456\"],[\"789\",\"789\"])\r\n    function splitProperty(splitPropertyInputs memory inputParameters) public {\r\n        Property storage ancestor = properties[inputParameters._propertyId];\r\n        // setting transfered true\r\n        ancestor.transfered = true;\r\n\r\n        // looping through area array as it denotes the number of land split into\r\n        for (uint256 i = 0; i < inputParameters._propertyLength.length; i++) {\r\n            Property storage tempProperty = properties[++propertyCount];\r\n\r\n            // values inherited from previous land\r\n            // property details\r\n            tempProperty.propertyHouseNumber = ancestor.propertyHouseNumber;\r\n            tempProperty.propertyStreetName = ancestor.propertyStreetName;\r\n            tempProperty.propertyType = ancestor.propertyType;\r\n            tempProperty.propertyLength = ancestor.propertyLength;\r\n            tempProperty.propertyWidth = ancestor.propertyWidth;\r\n            tempProperty.propertyPincode = ancestor.propertyPincode;\r\n            tempProperty.propertyState = ancestor.propertyState;\r\n            tempProperty.propertyVillage = ancestor.propertyVillage;\r\n            tempProperty.propertyDistrict = ancestor.propertyDistrict;\r\n            tempProperty.propertyTaluka = ancestor.propertyTaluka;\r\n\r\n            // transfer details (if any)\r\n            tempProperty.transfered = ancestor.transfered;\r\n            tempProperty.transferedTo = ancestor.transferedTo;\r\n\r\n            // split logic\r\n            tempProperty.transferedFrom.push(inputParameters._propertyId);\r\n\r\n            // new values of property\r\n            tempProperty.propertyId = propertyCount;\r\n            tempProperty.propertyLength = inputParameters._propertyLength[i];\r\n            tempProperty.propertyWidth = inputParameters._propertyWidth[i];\r\n\r\n            tempProperty.ownerName = inputParameters._ownerName[i];\r\n            tempProperty.aadharCardNumber = inputParameters\r\n                ._ownerAadhaarCardNumber[i];\r\n            tempProperty.panCardNumber = inputParameters._ownerPanCardNumber[i];\r\n            tempProperty.surveyNumber = inputParameters._surveyNumber[i];\r\n            tempProperty.subSurveyNumber = inputParameters._subSurveyNumber[i];\r\n            tempProperty.createdOn = inputParameters._createdOn;\r\n\r\n            for (\r\n                uint256 j = 0;\r\n                j < inputParameters._documentsName.length;\r\n                j++\r\n            ) {\r\n                document memory newDocument = document(\r\n                    inputParameters._documentsId[j],\r\n                    inputParameters._documentsName[j],\r\n                    inputParameters._documentsLink[j],\r\n                    inputParameters._documentsHash[j],\r\n                    true\r\n                );\r\n                tempProperty.documentNames.push(\r\n                    inputParameters._documentsName[j]\r\n                );\r\n                tempProperty.documents[\r\n                    inputParameters._documentsName[j]\r\n                ] = newDocument;\r\n            }\r\n\r\n            // registering new mapping of land\r\n            registerdLands.push(propertyCount);\r\n\r\n            emit sendPropertyId(propertyCount);\r\n\r\n            // setting splitted land values\r\n            ancestor.propertySplitLandId.push(propertyCount);\r\n        }\r\n    }\r\n\r\n    function getProperty(\r\n        uint256 _propertyId\r\n    ) public view returns (outputvariables memory) {\r\n        Property storage tempProperty = properties[_propertyId];\r\n\r\n        uint256 documentLength = tempProperty.documentNames.length;\r\n        // filling up documents\r\n        document[] memory documents = new document[](documentLength);\r\n\r\n        for (uint256 i = 0; i < documentLength; i++) {\r\n            string memory documentName = tempProperty.documentNames[i];\r\n            documents[i] = tempProperty.documents[documentName];\r\n        }\r\n\r\n        outputvariables memory returnValue = outputvariables(\r\n            tempProperty.propertyHouseNumber,\r\n            tempProperty.propertyStreetName,\r\n            tempProperty.propertyType,\r\n            tempProperty.propertyLength,\r\n            tempProperty.propertyWidth,\r\n            tempProperty.propertyPincode,\r\n            tempProperty.propertyState,\r\n            tempProperty.propertyVillage,\r\n            tempProperty.propertyDistrict,\r\n            tempProperty.propertyTaluka,\r\n            // owner details\r\n            tempProperty.ownerName,\r\n            tempProperty.aadharCardNumber,\r\n            tempProperty.panCardNumber,\r\n            // transfer details (if any)\r\n            tempProperty.transfered,\r\n            tempProperty.transferedTo,\r\n            tempProperty.transferedFrom,\r\n            tempProperty.propertySplitLandId,\r\n            // ownership details\r\n            tempProperty.surveyNumber,\r\n            tempProperty.subSurveyNumber,\r\n            tempProperty.createdOn,\r\n            // documents\r\n            documents\r\n        );\r\n        return returnValue;\r\n    }\r\n}\r\n",
  "sourcePath": "C:\\codingFiles\\projects\\land_registry_solidity\\contracts\\LandRegistery.sol",
  "compiler": {
    "name": "solc",
    "version": "0.8.17+commit.8df45f5f.Emscripten.clang"
  },
  "schemaVersion": "3.4.13",
  "updatedAt": "2023-04-18T18:28:20.596Z",
  "networkType": "ethereum",
  "devdoc": {
    "kind": "dev",
    "methods": {},
    "version": 1
  },
  "userdoc": {
    "kind": "user",
    "methods": {},
    "version": 1
  }
}